{
  "_format": "hh-sol-artifact-1",
  "contractName": "WarrentyNFT",
  "sourceName": "contracts/WarrentyNFT.sol",
  "abi": [
    {
      "inputs": [],
      "stateMutability": "nonpayable",
      "type": "constructor"
    },
    {
      "anonymous": false,
      "inputs": [
        {
          "indexed": true,
          "internalType": "address",
          "name": "owner",
          "type": "address"
        },
        {
          "indexed": true,
          "internalType": "address",
          "name": "approved",
          "type": "address"
        },
        {
          "indexed": true,
          "internalType": "uint256",
          "name": "tokenId",
          "type": "uint256"
        }
      ],
      "name": "Approval",
      "type": "event"
    },
    {
      "anonymous": false,
      "inputs": [
        {
          "indexed": true,
          "internalType": "address",
          "name": "owner",
          "type": "address"
        },
        {
          "indexed": true,
          "internalType": "address",
          "name": "operator",
          "type": "address"
        },
        {
          "indexed": false,
          "internalType": "bool",
          "name": "approved",
          "type": "bool"
        }
      ],
      "name": "ApprovalForAll",
      "type": "event"
    },
    {
      "anonymous": false,
      "inputs": [
        {
          "indexed": true,
          "internalType": "address",
          "name": "previousOwner",
          "type": "address"
        },
        {
          "indexed": true,
          "internalType": "address",
          "name": "newOwner",
          "type": "address"
        }
      ],
      "name": "OwnershipTransferred",
      "type": "event"
    },
    {
      "anonymous": false,
      "inputs": [
        {
          "indexed": true,
          "internalType": "uint256",
          "name": "tokenID",
          "type": "uint256"
        }
      ],
      "name": "Repair",
      "type": "event"
    },
    {
      "anonymous": false,
      "inputs": [
        {
          "indexed": true,
          "internalType": "uint256",
          "name": "tokenID",
          "type": "uint256"
        },
        {
          "indexed": true,
          "internalType": "uint256",
          "name": "newTokenID",
          "type": "uint256"
        }
      ],
      "name": "Replace",
      "type": "event"
    },
    {
      "anonymous": false,
      "inputs": [
        {
          "indexed": true,
          "internalType": "address",
          "name": "from",
          "type": "address"
        },
        {
          "indexed": true,
          "internalType": "address",
          "name": "to",
          "type": "address"
        },
        {
          "indexed": true,
          "internalType": "uint256",
          "name": "tokenId",
          "type": "uint256"
        }
      ],
      "name": "Transfer",
      "type": "event"
    },
    {
      "inputs": [
        {
          "internalType": "address",
          "name": "_admin",
          "type": "address"
        }
      ],
      "name": "addAdmin",
      "outputs": [],
      "stateMutability": "nonpayable",
      "type": "function"
    },
    {
      "inputs": [
        {
          "internalType": "uint256",
          "name": "productID",
          "type": "uint256"
        },
        {
          "internalType": "uint256",
          "name": "_warrentyPeriod",
          "type": "uint256"
        },
        {
          "internalType": "bool",
          "name": "_isSoulbound",
          "type": "bool"
        }
      ],
      "name": "addProduct",
      "outputs": [],
      "stateMutability": "nonpayable",
      "type": "function"
    },
    {
      "inputs": [
        {
          "internalType": "address",
          "name": "_seller",
          "type": "address"
        }
      ],
      "name": "addSeller",
      "outputs": [],
      "stateMutability": "nonpayable",
      "type": "function"
    },
    {
      "inputs": [
        {
          "internalType": "address",
          "name": "to",
          "type": "address"
        },
        {
          "internalType": "uint256",
          "name": "tokenId",
          "type": "uint256"
        }
      ],
      "name": "approve",
      "outputs": [],
      "stateMutability": "nonpayable",
      "type": "function"
    },
    {
      "inputs": [
        {
          "internalType": "address",
          "name": "owner",
          "type": "address"
        }
      ],
      "name": "balanceOf",
      "outputs": [
        {
          "internalType": "uint256",
          "name": "",
          "type": "uint256"
        }
      ],
      "stateMutability": "view",
      "type": "function"
    },
    {
      "inputs": [
        {
          "internalType": "uint256",
          "name": "tokenId",
          "type": "uint256"
        }
      ],
      "name": "burn",
      "outputs": [],
      "stateMutability": "nonpayable",
      "type": "function"
    },
    {
      "inputs": [
        {
          "internalType": "uint256",
          "name": "tokenId",
          "type": "uint256"
        }
      ],
      "name": "getApproved",
      "outputs": [
        {
          "internalType": "address",
          "name": "",
          "type": "address"
        }
      ],
      "stateMutability": "view",
      "type": "function"
    },
    {
      "inputs": [
        {
          "internalType": "address",
          "name": "",
          "type": "address"
        }
      ],
      "name": "isAdmin",
      "outputs": [
        {
          "internalType": "bool",
          "name": "",
          "type": "bool"
        }
      ],
      "stateMutability": "view",
      "type": "function"
    },
    {
      "inputs": [
        {
          "internalType": "address",
          "name": "owner",
          "type": "address"
        },
        {
          "internalType": "address",
          "name": "operator",
          "type": "address"
        }
      ],
      "name": "isApprovedForAll",
      "outputs": [
        {
          "internalType": "bool",
          "name": "",
          "type": "bool"
        }
      ],
      "stateMutability": "view",
      "type": "function"
    },
    {
      "inputs": [
        {
          "internalType": "address",
          "name": "",
          "type": "address"
        }
      ],
      "name": "isSeller",
      "outputs": [
        {
          "internalType": "bool",
          "name": "",
          "type": "bool"
        }
      ],
      "stateMutability": "view",
      "type": "function"
    },
    {
      "inputs": [
        {
          "internalType": "uint256",
          "name": "",
          "type": "uint256"
        }
      ],
      "name": "issueTime",
      "outputs": [
        {
          "internalType": "uint256",
          "name": "",
          "type": "uint256"
        }
      ],
      "stateMutability": "view",
      "type": "function"
    },
    {
      "inputs": [
        {
          "internalType": "address",
          "name": "buyer",
          "type": "address"
        },
        {
          "internalType": "uint256",
          "name": "productID",
          "type": "uint256"
        },
        {
          "internalType": "uint256",
          "name": "tokenID",
          "type": "uint256"
        }
      ],
      "name": "mintWarrentyNFT",
      "outputs": [],
      "stateMutability": "nonpayable",
      "type": "function"
    },
    {
      "inputs": [],
      "name": "name",
      "outputs": [
        {
          "internalType": "string",
          "name": "",
          "type": "string"
        }
      ],
      "stateMutability": "view",
      "type": "function"
    },
    {
      "inputs": [],
      "name": "owner",
      "outputs": [
        {
          "internalType": "address",
          "name": "",
          "type": "address"
        }
      ],
      "stateMutability": "view",
      "type": "function"
    },
    {
      "inputs": [
        {
          "internalType": "uint256",
          "name": "tokenId",
          "type": "uint256"
        }
      ],
      "name": "ownerOf",
      "outputs": [
        {
          "internalType": "address",
          "name": "",
          "type": "address"
        }
      ],
      "stateMutability": "view",
      "type": "function"
    },
    {
      "inputs": [
        {
          "internalType": "uint256",
          "name": "",
          "type": "uint256"
        }
      ],
      "name": "productTransferable",
      "outputs": [
        {
          "internalType": "bool",
          "name": "",
          "type": "bool"
        }
      ],
      "stateMutability": "view",
      "type": "function"
    },
    {
      "inputs": [
        {
          "internalType": "uint256",
          "name": "",
          "type": "uint256"
        }
      ],
      "name": "productWarrentyPeriod",
      "outputs": [
        {
          "internalType": "uint256",
          "name": "",
          "type": "uint256"
        }
      ],
      "stateMutability": "view",
      "type": "function"
    },
    {
      "inputs": [
        {
          "internalType": "address",
          "name": "_admin",
          "type": "address"
        }
      ],
      "name": "removeAdmin",
      "outputs": [],
      "stateMutability": "nonpayable",
      "type": "function"
    },
    {
      "inputs": [
        {
          "internalType": "address",
          "name": "_seller",
          "type": "address"
        }
      ],
      "name": "removeSeller",
      "outputs": [],
      "stateMutability": "nonpayable",
      "type": "function"
    },
    {
      "inputs": [],
      "name": "renounceOwnership",
      "outputs": [],
      "stateMutability": "nonpayable",
      "type": "function"
    },
    {
      "inputs": [
        {
          "internalType": "uint256",
          "name": "tokenID",
          "type": "uint256"
        }
      ],
      "name": "repairProduct",
      "outputs": [],
      "stateMutability": "nonpayable",
      "type": "function"
    },
    {
      "inputs": [
        {
          "internalType": "uint256",
          "name": "tokenID",
          "type": "uint256"
        },
        {
          "internalType": "uint256",
          "name": "newTokenID",
          "type": "uint256"
        }
      ],
      "name": "replaceProduct",
      "outputs": [],
      "stateMutability": "nonpayable",
      "type": "function"
    },
    {
      "inputs": [
        {
          "internalType": "address",
          "name": "from",
          "type": "address"
        },
        {
          "internalType": "address",
          "name": "to",
          "type": "address"
        },
        {
          "internalType": "uint256",
          "name": "tokenId",
          "type": "uint256"
        }
      ],
      "name": "safeTransferFrom",
      "outputs": [],
      "stateMutability": "nonpayable",
      "type": "function"
    },
    {
      "inputs": [
        {
          "internalType": "address",
          "name": "from",
          "type": "address"
        },
        {
          "internalType": "address",
          "name": "to",
          "type": "address"
        },
        {
          "internalType": "uint256",
          "name": "tokenId",
          "type": "uint256"
        },
        {
          "internalType": "bytes",
          "name": "data",
          "type": "bytes"
        }
      ],
      "name": "safeTransferFrom",
      "outputs": [],
      "stateMutability": "nonpayable",
      "type": "function"
    },
    {
      "inputs": [
        {
          "internalType": "uint256",
          "name": "",
          "type": "uint256"
        }
      ],
      "name": "sellerOf",
      "outputs": [
        {
          "internalType": "address",
          "name": "",
          "type": "address"
        }
      ],
      "stateMutability": "view",
      "type": "function"
    },
    {
      "inputs": [
        {
          "internalType": "address",
          "name": "operator",
          "type": "address"
        },
        {
          "internalType": "bool",
          "name": "approved",
          "type": "bool"
        }
      ],
      "name": "setApprovalForAll",
      "outputs": [],
      "stateMutability": "nonpayable",
      "type": "function"
    },
    {
      "inputs": [
        {
          "internalType": "bytes4",
          "name": "interfaceId",
          "type": "bytes4"
        }
      ],
      "name": "supportsInterface",
      "outputs": [
        {
          "internalType": "bool",
          "name": "",
          "type": "bool"
        }
      ],
      "stateMutability": "view",
      "type": "function"
    },
    {
      "inputs": [],
      "name": "symbol",
      "outputs": [
        {
          "internalType": "string",
          "name": "",
          "type": "string"
        }
      ],
      "stateMutability": "view",
      "type": "function"
    },
    {
      "inputs": [
        {
          "internalType": "uint256",
          "name": "tokenId",
          "type": "uint256"
        }
      ],
      "name": "tokenURI",
      "outputs": [
        {
          "internalType": "string",
          "name": "",
          "type": "string"
        }
      ],
      "stateMutability": "view",
      "type": "function"
    },
    {
      "inputs": [
        {
          "internalType": "address",
          "name": "from",
          "type": "address"
        },
        {
          "internalType": "address",
          "name": "to",
          "type": "address"
        },
        {
          "internalType": "uint256",
          "name": "tokenId",
          "type": "uint256"
        }
      ],
      "name": "transferFrom",
      "outputs": [],
      "stateMutability": "nonpayable",
      "type": "function"
    },
    {
      "inputs": [
        {
          "internalType": "address",
          "name": "newOwner",
          "type": "address"
        }
      ],
      "name": "transferOwnership",
      "outputs": [],
      "stateMutability": "nonpayable",
      "type": "function"
    },
    {
      "inputs": [
        {
          "internalType": "uint256",
          "name": "",
          "type": "uint256"
        }
      ],
      "name": "transferable",
      "outputs": [
        {
          "internalType": "bool",
          "name": "",
          "type": "bool"
        }
      ],
      "stateMutability": "view",
      "type": "function"
    },
    {
      "inputs": [
        {
          "internalType": "uint256",
          "name": "",
          "type": "uint256"
        }
      ],
      "name": "warrentyPeriod",
      "outputs": [
        {
          "internalType": "uint256",
          "name": "",
          "type": "uint256"
        }
      ],
      "stateMutability": "view",
      "type": "function"
    }
  ],
  "bytecode": "0x60806040523480156200001157600080fd5b506040518060400160405280600881526020017f57617272656e74790000000000000000000000000000000000000000000000008152506040518060400160405280600181526020017f570000000000000000000000000000000000000000000000000000000000000081525081600090805190602001906200009692919062000261565b508060019080519060200190620000af92919062000261565b505050620000d2620000c66200019360201b60201c565b6200019b60201b60201c565b33600860006101000a81548173ffffffffffffffffffffffffffffffffffffffff021916908373ffffffffffffffffffffffffffffffffffffffff160217905550600160096000600860009054906101000a900473ffffffffffffffffffffffffffffffffffffffff1673ffffffffffffffffffffffffffffffffffffffff1673ffffffffffffffffffffffffffffffffffffffff16815260200190815260200160002060006101000a81548160ff02191690831515021790555062000376565b600033905090565b6000600760009054906101000a900473ffffffffffffffffffffffffffffffffffffffff16905081600760006101000a81548173ffffffffffffffffffffffffffffffffffffffff021916908373ffffffffffffffffffffffffffffffffffffffff1602179055508173ffffffffffffffffffffffffffffffffffffffff168173ffffffffffffffffffffffffffffffffffffffff167f8be0079c531659141344cd1fd0a4f28419497f9722a3daafe3b4186f6b6457e060405160405180910390a35050565b8280546200026f9062000340565b90600052602060002090601f016020900481019282620002935760008555620002df565b82601f10620002ae57805160ff1916838001178555620002df565b82800160010185558215620002df579182015b82811115620002de578251825591602001919060010190620002c1565b5b509050620002ee9190620002f2565b5090565b5b808211156200030d576000816000905550600101620002f3565b5090565b7f4e487b7100000000000000000000000000000000000000000000000000000000600052602260045260246000fd5b600060028204905060018216806200035957607f821691505b6020821081141562000370576200036f62000311565b5b50919050565b6140c180620003866000396000f3fe608060405234801561001057600080fd5b50600436106101fa5760003560e01c80637cb9cf541161011a578063d93fabfa116100ad578063f2fde38b1161007c578063f2fde38b146105f3578063f4c3b4d71461060f578063f78ee9fb1461063f578063fa1736701461066f578063fc45e66c1461068b576101fa565b8063d93fabfa14610547578063e05c5a8314610563578063e985e9c514610593578063ee95feaf146105c3576101fa565b806395d89b41116100e957806395d89b41146104c1578063a22cb465146104df578063b88d4fde146104fb578063c87b56dd14610517576101fa565b80637cb9cf541461043b578063803a93da146104575780638c00cc96146104735780638da5cb5b146104a3576101fa565b806324d7806c11610192578063704802751161016157806370480275146103b557806370a08231146103d1578063715018a6146104015780637997df6f1461040b576101fa565b806324d7806c1461031d57806342842e0e1461034d57806342966c68146103695780636352211e14610385576101fa565b8063095ea7b3116101ce578063095ea7b3146102ad578063109b3d1f146102c95780631785f53c146102e557806323b872dd14610301576101fa565b806269bd91146101ff57806301ffc9a71461022f57806306fdde031461025f578063081812fc1461027d575b600080fd5b61021960048036038101906102149190612cb4565b6106a7565b6040516102269190612cf0565b60405180910390f35b61024960048036038101906102449190612d63565b6106bf565b6040516102569190612dab565b60405180910390f35b6102676107a1565b6040516102749190612e5f565b60405180910390f35b61029760048036038101906102929190612cb4565b610833565b6040516102a49190612ec2565b60405180910390f35b6102c760048036038101906102c29190612f09565b610879565b005b6102e360048036038101906102de9190612cb4565b610991565b005b6102ff60048036038101906102fa9190612f49565b610bdf565b005b61031b60048036038101906103169190612f76565b610cc6565b005b61033760048036038101906103329190612f49565b610d26565b6040516103449190612dab565b60405180910390f35b61036760048036038101906103629190612f76565b610d46565b005b610383600480360381019061037e9190612cb4565b610d66565b005b61039f600480360381019061039a9190612cb4565b610dc2565b6040516103ac9190612ec2565b60405180910390f35b6103cf60048036038101906103ca9190612f49565b610e74565b005b6103eb60048036038101906103e69190612f49565b610f5b565b6040516103f89190612cf0565b60405180910390f35b610409611013565b005b61042560048036038101906104209190612cb4565b611027565b6040516104329190612dab565b60405180910390f35b61045560048036038101906104509190612f49565b611047565b005b610471600480360381019061046c9190612fc9565b61112e565b005b61048d60048036038101906104889190612cb4565b611270565b60405161049a9190612cf0565b60405180910390f35b6104ab611288565b6040516104b89190612ec2565b60405180910390f35b6104c96112b2565b6040516104d69190612e5f565b60405180910390f35b6104f960048036038101906104f49190613048565b611344565b005b610515600480360381019061051091906131bd565b61135a565b005b610531600480360381019061052c9190612cb4565b6113bc565b60405161053e9190612e5f565b60405180910390f35b610561600480360381019061055c9190612f49565b6113ce565b005b61057d60048036038101906105789190612cb4565b6114b5565b60405161058a9190612ec2565b60405180910390f35b6105ad60048036038101906105a89190613240565b6114e8565b6040516105ba9190612dab565b60405180910390f35b6105dd60048036038101906105d89190612f49565b61157c565b6040516105ea9190612dab565b60405180910390f35b61060d60048036038101906106089190612f49565b61159c565b005b61062960048036038101906106249190612cb4565b611620565b6040516106369190612dab565b60405180910390f35b61065960048036038101906106549190612cb4565b611640565b6040516106669190612cf0565b60405180910390f35b61068960048036038101906106849190613280565b611658565b005b6106a560048036038101906106a091906132c0565b6118d3565b005b60106020528060005260406000206000915090505481565b60007f80ac58cd000000000000000000000000000000000000000000000000000000007bffffffffffffffffffffffffffffffffffffffffffffffffffffffff1916827bffffffffffffffffffffffffffffffffffffffffffffffffffffffff1916148061078a57507f5b5e139f000000000000000000000000000000000000000000000000000000007bffffffffffffffffffffffffffffffffffffffffffffffffffffffff1916827bffffffffffffffffffffffffffffffffffffffffffffffffffffffff1916145b8061079a5750610799826119a8565b5b9050919050565b6060600080546107b090613342565b80601f01602080910402602001604051908101604052809291908181526020018280546107dc90613342565b80156108295780601f106107fe57610100808354040283529160200191610829565b820191906000526020600020905b81548152906001019060200180831161080c57829003601f168201915b5050505050905090565b600061083e82611a12565b6004600083815260200190815260200160002060009054906101000a900473ffffffffffffffffffffffffffffffffffffffff169050919050565b600061088482610dc2565b90508073ffffffffffffffffffffffffffffffffffffffff168373ffffffffffffffffffffffffffffffffffffffff1614156108f5576040517f08c379a00000000000000000000000000000000000000000000000000000000081526004016108ec906133e6565b60405180910390fd5b8073ffffffffffffffffffffffffffffffffffffffff16610914611a5d565b73ffffffffffffffffffffffffffffffffffffffff16148061094357506109428161093d611a5d565b6114e8565b5b610982576040517f08c379a000000000000000000000000000000000000000000000000000000000815260040161097990613478565b60405180910390fd5b61098c8383611a65565b505050565b600a60003373ffffffffffffffffffffffffffffffffffffffff1673ffffffffffffffffffffffffffffffffffffffff16815260200190815260200160002060009054906101000a900460ff16610a1d576040517f08c379a0000000000000000000000000000000000000000000000000000000008152600401610a14906134e4565b60405180910390fd5b80600073ffffffffffffffffffffffffffffffffffffffff16610a3f82610dc2565b73ffffffffffffffffffffffffffffffffffffffff161415610a96576040517f08c379a0000000000000000000000000000000000000000000000000000000008152600401610a8d90613576565b60405180910390fd5b81426010600083815260200190815260200160002054600e600084815260200190815260200160002054610aca91906135c5565b11610b0a576040517f08c379a0000000000000000000000000000000000000000000000000000000008152600401610b019061368d565b60405180910390fd5b823373ffffffffffffffffffffffffffffffffffffffff16600d600083815260200190815260200160002060009054906101000a900473ffffffffffffffffffffffffffffffffffffffff1673ffffffffffffffffffffffffffffffffffffffff1614610bac576040517f08c379a0000000000000000000000000000000000000000000000000000000008152600401610ba3906136f9565b60405180910390fd5b837f10ec01e7da8806f72699d63daf6c544662592f529db723a941af7aba0d2c3a2a60405160405180910390a250505050565b600960003373ffffffffffffffffffffffffffffffffffffffff1673ffffffffffffffffffffffffffffffffffffffff16815260200190815260200160002060009054906101000a900460ff16610c6b576040517f08c379a0000000000000000000000000000000000000000000000000000000008152600401610c6290613765565b60405180910390fd5b6000600960008373ffffffffffffffffffffffffffffffffffffffff1673ffffffffffffffffffffffffffffffffffffffff16815260200190815260200160002060006101000a81548160ff02191690831515021790555050565b610cd7610cd1611a5d565b82611b1e565b610d16576040517f08c379a0000000000000000000000000000000000000000000000000000000008152600401610d0d906137f7565b60405180910390fd5b610d21838383611bb3565b505050565b60096020528060005260406000206000915054906101000a900460ff1681565b610d618383836040518060200160405280600081525061135a565b505050565b610d77610d71611a5d565b82611b1e565b610db6576040517f08c379a0000000000000000000000000000000000000000000000000000000008152600401610dad906137f7565b60405180910390fd5b610dbf81611e1a565b50565b6000806002600084815260200190815260200160002060009054906101000a900473ffffffffffffffffffffffffffffffffffffffff169050600073ffffffffffffffffffffffffffffffffffffffff168173ffffffffffffffffffffffffffffffffffffffff161415610e6b576040517f08c379a0000000000000000000000000000000000000000000000000000000008152600401610e6290613863565b60405180910390fd5b80915050919050565b600960003373ffffffffffffffffffffffffffffffffffffffff1673ffffffffffffffffffffffffffffffffffffffff16815260200190815260200160002060009054906101000a900460ff16610f00576040517f08c379a0000000000000000000000000000000000000000000000000000000008152600401610ef790613765565b60405180910390fd5b6001600960008373ffffffffffffffffffffffffffffffffffffffff1673ffffffffffffffffffffffffffffffffffffffff16815260200190815260200160002060006101000a81548160ff02191690831515021790555050565b60008073ffffffffffffffffffffffffffffffffffffffff168273ffffffffffffffffffffffffffffffffffffffff161415610fcc576040517f08c379a0000000000000000000000000000000000000000000000000000000008152600401610fc3906138f5565b60405180910390fd5b600360008373ffffffffffffffffffffffffffffffffffffffff1673ffffffffffffffffffffffffffffffffffffffff168152602001908152602001600020549050919050565b61101b611e26565b6110256000611ea4565b565b600b6020528060005260406000206000915054906101000a900460ff1681565b600960003373ffffffffffffffffffffffffffffffffffffffff1673ffffffffffffffffffffffffffffffffffffffff16815260200190815260200160002060009054906101000a900460ff166110d3576040517f08c379a00000000000000000000000000000000000000000000000000000000081526004016110ca90613765565b60405180910390fd5b6000600a60008373ffffffffffffffffffffffffffffffffffffffff1673ffffffffffffffffffffffffffffffffffffffff16815260200190815260200160002060006101000a81548160ff02191690831515021790555050565b600a60003373ffffffffffffffffffffffffffffffffffffffff1673ffffffffffffffffffffffffffffffffffffffff16815260200190815260200160002060009054906101000a900460ff166111ba576040517f08c379a00000000000000000000000000000000000000000000000000000000081526004016111b1906134e4565b60405180910390fd5b33600d600083815260200190815260200160002060006101000a81548173ffffffffffffffffffffffffffffffffffffffff021916908373ffffffffffffffffffffffffffffffffffffffff16021790555042600e600083815260200190815260200160002081905550600c60008381526020019081526020016000205460106000838152602001908152602001600020819055506112598382611f6a565b61126b8161126684611f88565b6120e9565b505050565b600e6020528060005260406000206000915090505481565b6000600760009054906101000a900473ffffffffffffffffffffffffffffffffffffffff16905090565b6060600180546112c190613342565b80601f01602080910402602001604051908101604052809291908181526020018280546112ed90613342565b801561133a5780601f1061130f5761010080835404028352916020019161133a565b820191906000526020600020905b81548152906001019060200180831161131d57829003601f168201915b5050505050905090565b61135661134f611a5d565b838361215d565b5050565b61136b611365611a5d565b83611b1e565b6113aa576040517f08c379a00000000000000000000000000000000000000000000000000000000081526004016113a1906137f7565b60405180910390fd5b6113b6848484846122ca565b50505050565b60606113c782612326565b9050919050565b600960003373ffffffffffffffffffffffffffffffffffffffff1673ffffffffffffffffffffffffffffffffffffffff16815260200190815260200160002060009054906101000a900460ff1661145a576040517f08c379a000000000000000000000000000000000000000000000000000000000815260040161145190613765565b60405180910390fd5b6001600a60008373ffffffffffffffffffffffffffffffffffffffff1673ffffffffffffffffffffffffffffffffffffffff16815260200190815260200160002060006101000a81548160ff02191690831515021790555050565b600d6020528060005260406000206000915054906101000a900473ffffffffffffffffffffffffffffffffffffffff1681565b6000600560008473ffffffffffffffffffffffffffffffffffffffff1673ffffffffffffffffffffffffffffffffffffffff16815260200190815260200160002060008373ffffffffffffffffffffffffffffffffffffffff1673ffffffffffffffffffffffffffffffffffffffff16815260200190815260200160002060009054906101000a900460ff16905092915050565b600a6020528060005260406000206000915054906101000a900460ff1681565b6115a4611e26565b600073ffffffffffffffffffffffffffffffffffffffff168173ffffffffffffffffffffffffffffffffffffffff161415611614576040517f08c379a000000000000000000000000000000000000000000000000000000000815260040161160b90613987565b60405180910390fd5b61161d81611ea4565b50565b600f6020528060005260406000206000915054906101000a900460ff1681565b600c6020528060005260406000206000915090505481565b600a60003373ffffffffffffffffffffffffffffffffffffffff1673ffffffffffffffffffffffffffffffffffffffff16815260200190815260200160002060009054906101000a900460ff166116e4576040517f08c379a00000000000000000000000000000000000000000000000000000000081526004016116db906134e4565b60405180910390fd5b81600073ffffffffffffffffffffffffffffffffffffffff1661170682610dc2565b73ffffffffffffffffffffffffffffffffffffffff16141561175d576040517f08c379a000000000000000000000000000000000000000000000000000000000815260040161175490613576565b60405180910390fd5b82426010600083815260200190815260200160002054600e60008481526020019081526020016000205461179191906135c5565b116117d1576040517f08c379a00000000000000000000000000000000000000000000000000000000081526004016117c89061368d565b60405180910390fd5b833373ffffffffffffffffffffffffffffffffffffffff16600d600083815260200190815260200160002060009054906101000a900473ffffffffffffffffffffffffffffffffffffffff1673ffffffffffffffffffffffffffffffffffffffff1614611873576040517f08c379a000000000000000000000000000000000000000000000000000000000815260040161186a906136f9565b60405180910390fd5b600e600086815260200190815260200160002054600e60008681526020019081526020016000208190555083857f834caf0d657e1c8ce84ea94dbc4257c78fb77ad2bcd43a096c37bb539928454260405160405180910390a35050505050565b600a60003373ffffffffffffffffffffffffffffffffffffffff1673ffffffffffffffffffffffffffffffffffffffff16815260200190815260200160002060009054906101000a900460ff1661195f576040517f08c379a0000000000000000000000000000000000000000000000000000000008152600401611956906134e4565b60405180910390fd5b8160106000858152602001908152602001600020819055508015600b600085815260200190815260200160002060006101000a81548160ff021916908315150217905550505050565b60007f01ffc9a7000000000000000000000000000000000000000000000000000000007bffffffffffffffffffffffffffffffffffffffffffffffffffffffff1916827bffffffffffffffffffffffffffffffffffffffffffffffffffffffff1916149050919050565b611a1b81612439565b611a5a576040517f08c379a0000000000000000000000000000000000000000000000000000000008152600401611a5190613863565b60405180910390fd5b50565b600033905090565b816004600083815260200190815260200160002060006101000a81548173ffffffffffffffffffffffffffffffffffffffff021916908373ffffffffffffffffffffffffffffffffffffffff160217905550808273ffffffffffffffffffffffffffffffffffffffff16611ad883610dc2565b73ffffffffffffffffffffffffffffffffffffffff167f8c5be1e5ebec7d5bd14f71427d1e84f3dd0314c0f7b2291e5b200ac8c7c3b92560405160405180910390a45050565b600080611b2a83610dc2565b90508073ffffffffffffffffffffffffffffffffffffffff168473ffffffffffffffffffffffffffffffffffffffff161480611b6c5750611b6b81856114e8565b5b80611baa57508373ffffffffffffffffffffffffffffffffffffffff16611b9284610833565b73ffffffffffffffffffffffffffffffffffffffff16145b91505092915050565b8273ffffffffffffffffffffffffffffffffffffffff16611bd382610dc2565b73ffffffffffffffffffffffffffffffffffffffff1614611c29576040517f08c379a0000000000000000000000000000000000000000000000000000000008152600401611c2090613a19565b60405180910390fd5b600073ffffffffffffffffffffffffffffffffffffffff168273ffffffffffffffffffffffffffffffffffffffff161415611c99576040517f08c379a0000000000000000000000000000000000000000000000000000000008152600401611c9090613aab565b60405180910390fd5b611ca48383836124a5565b611caf600082611a65565b6001600360008573ffffffffffffffffffffffffffffffffffffffff1673ffffffffffffffffffffffffffffffffffffffff1681526020019081526020016000206000828254611cff9190613acb565b925050819055506001600360008473ffffffffffffffffffffffffffffffffffffffff1673ffffffffffffffffffffffffffffffffffffffff1681526020019081526020016000206000828254611d5691906135c5565b92505081905550816002600083815260200190815260200160002060006101000a81548173ffffffffffffffffffffffffffffffffffffffff021916908373ffffffffffffffffffffffffffffffffffffffff160217905550808273ffffffffffffffffffffffffffffffffffffffff168473ffffffffffffffffffffffffffffffffffffffff167fddf252ad1be2c89b69c2b068fc378daa952ba7f163c4a11628f55a4df523b3ef60405160405180910390a4611e1583838361257e565b505050565b611e2381612583565b50565b611e2e611a5d565b73ffffffffffffffffffffffffffffffffffffffff16611e4c611288565b73ffffffffffffffffffffffffffffffffffffffff1614611ea2576040517f08c379a0000000000000000000000000000000000000000000000000000000008152600401611e9990613b4b565b60405180910390fd5b565b6000600760009054906101000a900473ffffffffffffffffffffffffffffffffffffffff16905081600760006101000a81548173ffffffffffffffffffffffffffffffffffffffff021916908373ffffffffffffffffffffffffffffffffffffffff1602179055508173ffffffffffffffffffffffffffffffffffffffff168173ffffffffffffffffffffffffffffffffffffffff167f8be0079c531659141344cd1fd0a4f28419497f9722a3daafe3b4186f6b6457e060405160405180910390a35050565b611f848282604051806020016040528060008152506125d6565b5050565b60606000821415611fd0576040518060400160405280600181526020017f300000000000000000000000000000000000000000000000000000000000000081525090506120e4565b600082905060005b60008214612002578080611feb90613b6b565b915050600a82611ffb9190613be3565b9150611fd8565b60008167ffffffffffffffff81111561201e5761201d613092565b5b6040519080825280601f01601f1916602001820160405280156120505781602001600182028036833780820191505090505b5090505b600085146120dd576001826120699190613acb565b9150600a856120789190613c14565b603061208491906135c5565b60f81b81838151811061209a57612099613c45565b5b60200101907effffffffffffffffffffffffffffffffffffffffffffffffffffffffffffff1916908160001a905350600a856120d69190613be3565b9450612054565b8093505050505b919050565b6120f282612439565b612131576040517f08c379a000000000000000000000000000000000000000000000000000000000815260040161212890613ce6565b60405180910390fd5b80600660008481526020019081526020016000209080519060200190612158929190612b87565b505050565b8173ffffffffffffffffffffffffffffffffffffffff168373ffffffffffffffffffffffffffffffffffffffff1614156121cc576040517f08c379a00000000000000000000000000000000000000000000000000000000081526004016121c390613d52565b60405180910390fd5b80600560008573ffffffffffffffffffffffffffffffffffffffff1673ffffffffffffffffffffffffffffffffffffffff16815260200190815260200160002060008473ffffffffffffffffffffffffffffffffffffffff1673ffffffffffffffffffffffffffffffffffffffff16815260200190815260200160002060006101000a81548160ff0219169083151502179055508173ffffffffffffffffffffffffffffffffffffffff168373ffffffffffffffffffffffffffffffffffffffff167f17307eab39ab6107e8899845ad3d59bd9653f200f220920489ca2b5937696c31836040516122bd9190612dab565b60405180910390a3505050565b6122d5848484611bb3565b6122e184848484612631565b612320576040517f08c379a000000000000000000000000000000000000000000000000000000000815260040161231790613de4565b60405180910390fd5b50505050565b606061233182611a12565b600060066000848152602001908152602001600020805461235190613342565b80601f016020809104026020016040519081016040528092919081815260200182805461237d90613342565b80156123ca5780601f1061239f576101008083540402835291602001916123ca565b820191906000526020600020905b8154815290600101906020018083116123ad57829003601f168201915b5050505050905060006123db6127c8565b90506000815114156123f1578192505050612434565b60008251111561242657808260405160200161240e929190613e40565b60405160208183030381529060405292505050612434565b61242f84612805565b925050505b919050565b60008073ffffffffffffffffffffffffffffffffffffffff166002600084815260200190815260200160002060009054906101000a900473ffffffffffffffffffffffffffffffffffffffff1673ffffffffffffffffffffffffffffffffffffffff1614159050919050565b60001515600f600083815260200190815260200160002060009054906101000a900460ff161515141561257957600073ffffffffffffffffffffffffffffffffffffffff168373ffffffffffffffffffffffffffffffffffffffff1614806125395750600073ffffffffffffffffffffffffffffffffffffffff168273ffffffffffffffffffffffffffffffffffffffff16145b612578576040517f08c379a000000000000000000000000000000000000000000000000000000000815260040161256f90613eb0565b60405180910390fd5b5b505050565b505050565b61258c8161286d565b60006006600083815260200190815260200160002080546125ac90613342565b9050146125d3576006600082815260200190815260200160002060006125d29190612c0d565b5b50565b6125e0838361298a565b6125ed6000848484612631565b61262c576040517f08c379a000000000000000000000000000000000000000000000000000000000815260040161262390613de4565b60405180910390fd5b505050565b60006126528473ffffffffffffffffffffffffffffffffffffffff16612b64565b156127bb578373ffffffffffffffffffffffffffffffffffffffff1663150b7a0261267b611a5d565b8786866040518563ffffffff1660e01b815260040161269d9493929190613f25565b602060405180830381600087803b1580156126b757600080fd5b505af19250505080156126e857506040513d601f19601f820116820180604052508101906126e59190613f86565b60015b61276b573d8060008114612718576040519150601f19603f3d011682016040523d82523d6000602084013e61271d565b606091505b50600081511415612763576040517f08c379a000000000000000000000000000000000000000000000000000000000815260040161275a90613de4565b60405180910390fd5b805181602001fd5b63150b7a0260e01b7bffffffffffffffffffffffffffffffffffffffffffffffffffffffff1916817bffffffffffffffffffffffffffffffffffffffffffffffffffffffff1916149150506127c0565b600190505b949350505050565b60606040518060400160405280600881526020017f68747470733a2f2f000000000000000000000000000000000000000000000000815250905090565b606061281082611a12565b600061281a6127c8565b9050600081511161283a5760405180602001604052806000815250612865565b8061284484611f88565b604051602001612855929190613e40565b6040516020818303038152906040525b915050919050565b600061287882610dc2565b9050612886816000846124a5565b612891600083611a65565b6001600360008373ffffffffffffffffffffffffffffffffffffffff1673ffffffffffffffffffffffffffffffffffffffff16815260200190815260200160002060008282546128e19190613acb565b925050819055506002600083815260200190815260200160002060006101000a81549073ffffffffffffffffffffffffffffffffffffffff021916905581600073ffffffffffffffffffffffffffffffffffffffff168273ffffffffffffffffffffffffffffffffffffffff167fddf252ad1be2c89b69c2b068fc378daa952ba7f163c4a11628f55a4df523b3ef60405160405180910390a46129868160008461257e565b5050565b600073ffffffffffffffffffffffffffffffffffffffff168273ffffffffffffffffffffffffffffffffffffffff1614156129fa576040517f08c379a00000000000000000000000000000000000000000000000000000000081526004016129f190613fff565b60405180910390fd5b612a0381612439565b15612a43576040517f08c379a0000000000000000000000000000000000000000000000000000000008152600401612a3a9061406b565b60405180910390fd5b612a4f600083836124a5565b6001600360008473ffffffffffffffffffffffffffffffffffffffff1673ffffffffffffffffffffffffffffffffffffffff1681526020019081526020016000206000828254612a9f91906135c5565b92505081905550816002600083815260200190815260200160002060006101000a81548173ffffffffffffffffffffffffffffffffffffffff021916908373ffffffffffffffffffffffffffffffffffffffff160217905550808273ffffffffffffffffffffffffffffffffffffffff16600073ffffffffffffffffffffffffffffffffffffffff167fddf252ad1be2c89b69c2b068fc378daa952ba7f163c4a11628f55a4df523b3ef60405160405180910390a4612b606000838361257e565b5050565b6000808273ffffffffffffffffffffffffffffffffffffffff163b119050919050565b828054612b9390613342565b90600052602060002090601f016020900481019282612bb55760008555612bfc565b82601f10612bce57805160ff1916838001178555612bfc565b82800160010185558215612bfc579182015b82811115612bfb578251825591602001919060010190612be0565b5b509050612c099190612c4d565b5090565b508054612c1990613342565b6000825580601f10612c2b5750612c4a565b601f016020900490600052602060002090810190612c499190612c4d565b5b50565b5b80821115612c66576000816000905550600101612c4e565b5090565b6000604051905090565b600080fd5b600080fd5b6000819050919050565b612c9181612c7e565b8114612c9c57600080fd5b50565b600081359050612cae81612c88565b92915050565b600060208284031215612cca57612cc9612c74565b5b6000612cd884828501612c9f565b91505092915050565b612cea81612c7e565b82525050565b6000602082019050612d056000830184612ce1565b92915050565b60007fffffffff0000000000000000000000000000000000000000000000000000000082169050919050565b612d4081612d0b565b8114612d4b57600080fd5b50565b600081359050612d5d81612d37565b92915050565b600060208284031215612d7957612d78612c74565b5b6000612d8784828501612d4e565b91505092915050565b60008115159050919050565b612da581612d90565b82525050565b6000602082019050612dc06000830184612d9c565b92915050565b600081519050919050565b600082825260208201905092915050565b60005b83811015612e00578082015181840152602081019050612de5565b83811115612e0f576000848401525b50505050565b6000601f19601f8301169050919050565b6000612e3182612dc6565b612e3b8185612dd1565b9350612e4b818560208601612de2565b612e5481612e15565b840191505092915050565b60006020820190508181036000830152612e798184612e26565b905092915050565b600073ffffffffffffffffffffffffffffffffffffffff82169050919050565b6000612eac82612e81565b9050919050565b612ebc81612ea1565b82525050565b6000602082019050612ed76000830184612eb3565b92915050565b612ee681612ea1565b8114612ef157600080fd5b50565b600081359050612f0381612edd565b92915050565b60008060408385031215612f2057612f1f612c74565b5b6000612f2e85828601612ef4565b9250506020612f3f85828601612c9f565b9150509250929050565b600060208284031215612f5f57612f5e612c74565b5b6000612f6d84828501612ef4565b91505092915050565b600080600060608486031215612f8f57612f8e612c74565b5b6000612f9d86828701612ef4565b9350506020612fae86828701612ef4565b9250506040612fbf86828701612c9f565b9150509250925092565b600080600060608486031215612fe257612fe1612c74565b5b6000612ff086828701612ef4565b935050602061300186828701612c9f565b925050604061301286828701612c9f565b9150509250925092565b61302581612d90565b811461303057600080fd5b50565b6000813590506130428161301c565b92915050565b6000806040838503121561305f5761305e612c74565b5b600061306d85828601612ef4565b925050602061307e85828601613033565b9150509250929050565b600080fd5b600080fd5b7f4e487b7100000000000000000000000000000000000000000000000000000000600052604160045260246000fd5b6130ca82612e15565b810181811067ffffffffffffffff821117156130e9576130e8613092565b5b80604052505050565b60006130fc612c6a565b905061310882826130c1565b919050565b600067ffffffffffffffff82111561312857613127613092565b5b61313182612e15565b9050602081019050919050565b82818337600083830152505050565b600061316061315b8461310d565b6130f2565b90508281526020810184848401111561317c5761317b61308d565b5b61318784828561313e565b509392505050565b600082601f8301126131a4576131a3613088565b5b81356131b484826020860161314d565b91505092915050565b600080600080608085870312156131d7576131d6612c74565b5b60006131e587828801612ef4565b94505060206131f687828801612ef4565b935050604061320787828801612c9f565b925050606085013567ffffffffffffffff81111561322857613227612c79565b5b6132348782880161318f565b91505092959194509250565b6000806040838503121561325757613256612c74565b5b600061326585828601612ef4565b925050602061327685828601612ef4565b9150509250929050565b6000806040838503121561329757613296612c74565b5b60006132a585828601612c9f565b92505060206132b685828601612c9f565b9150509250929050565b6000806000606084860312156132d9576132d8612c74565b5b60006132e786828701612c9f565b93505060206132f886828701612c9f565b925050604061330986828701613033565b9150509250925092565b7f4e487b7100000000000000000000000000000000000000000000000000000000600052602260045260246000fd5b6000600282049050600182168061335a57607f821691505b6020821081141561336e5761336d613313565b5b50919050565b7f4552433732313a20617070726f76616c20746f2063757272656e74206f776e6560008201527f7200000000000000000000000000000000000000000000000000000000000000602082015250565b60006133d0602183612dd1565b91506133db82613374565b604082019050919050565b600060208201905081810360008301526133ff816133c3565b9050919050565b7f4552433732313a20617070726f76652063616c6c6572206973206e6f7420746f60008201527f6b656e206f776e6572206e6f7220617070726f76656420666f7220616c6c0000602082015250565b6000613462603e83612dd1565b915061346d82613406565b604082019050919050565b6000602082019050818103600083015261349181613455565b9050919050565b7f53656c6c6572206f6e6c792066756e6374696f6e000000000000000000000000600082015250565b60006134ce601483612dd1565b91506134d982613498565b602082019050919050565b600060208201905081810360008301526134fd816134c1565b9050919050565b7f5468652070726f647563742065697468657220646f6573206e6f74206578697360008201527f74206f7220686173206e6f74206265656e20736f6c6420796574000000000000602082015250565b6000613560603a83612dd1565b915061356b82613504565b604082019050919050565b6000602082019050818103600083015261358f81613553565b9050919050565b7f4e487b7100000000000000000000000000000000000000000000000000000000600052601160045260246000fd5b60006135d082612c7e565b91506135db83612c7e565b9250827fffffffffffffffffffffffffffffffffffffffffffffffffffffffffffffffff038211156136105761360f613596565b5b828201905092915050565b7f5468652070726f64756374206973206e6f7420696e2077617272616e7479207060008201527f6572696f64000000000000000000000000000000000000000000000000000000602082015250565b6000613677602583612dd1565b91506136828261361b565b604082019050919050565b600060208201905081810360008301526136a68161366a565b9050919050565b7f596f7520617265206e6f74207468652073656c6c657200000000000000000000600082015250565b60006136e3601683612dd1565b91506136ee826136ad565b602082019050919050565b60006020820190508181036000830152613712816136d6565b9050919050565b7f41646d696e206f6e6c792066756e6374696f6e00000000000000000000000000600082015250565b600061374f601383612dd1565b915061375a82613719565b602082019050919050565b6000602082019050818103600083015261377e81613742565b9050919050565b7f4552433732313a2063616c6c6572206973206e6f7420746f6b656e206f776e6560008201527f72206e6f7220617070726f766564000000000000000000000000000000000000602082015250565b60006137e1602e83612dd1565b91506137ec82613785565b604082019050919050565b60006020820190508181036000830152613810816137d4565b9050919050565b7f4552433732313a20696e76616c696420746f6b656e2049440000000000000000600082015250565b600061384d601883612dd1565b915061385882613817565b602082019050919050565b6000602082019050818103600083015261387c81613840565b9050919050565b7f4552433732313a2061646472657373207a65726f206973206e6f74206120766160008201527f6c6964206f776e65720000000000000000000000000000000000000000000000602082015250565b60006138df602983612dd1565b91506138ea82613883565b604082019050919050565b6000602082019050818103600083015261390e816138d2565b9050919050565b7f4f776e61626c653a206e6577206f776e657220697320746865207a65726f206160008201527f6464726573730000000000000000000000000000000000000000000000000000602082015250565b6000613971602683612dd1565b915061397c82613915565b604082019050919050565b600060208201905081810360008301526139a081613964565b9050919050565b7f4552433732313a207472616e736665722066726f6d20696e636f72726563742060008201527f6f776e6572000000000000000000000000000000000000000000000000000000602082015250565b6000613a03602583612dd1565b9150613a0e826139a7565b604082019050919050565b60006020820190508181036000830152613a32816139f6565b9050919050565b7f4552433732313a207472616e7366657220746f20746865207a65726f2061646460008201527f7265737300000000000000000000000000000000000000000000000000000000602082015250565b6000613a95602483612dd1565b9150613aa082613a39565b604082019050919050565b60006020820190508181036000830152613ac481613a88565b9050919050565b6000613ad682612c7e565b9150613ae183612c7e565b925082821015613af457613af3613596565b5b828203905092915050565b7f4f776e61626c653a2063616c6c6572206973206e6f7420746865206f776e6572600082015250565b6000613b35602083612dd1565b9150613b4082613aff565b602082019050919050565b60006020820190508181036000830152613b6481613b28565b9050919050565b6000613b7682612c7e565b91507fffffffffffffffffffffffffffffffffffffffffffffffffffffffffffffffff821415613ba957613ba8613596565b5b600182019050919050565b7f4e487b7100000000000000000000000000000000000000000000000000000000600052601260045260246000fd5b6000613bee82612c7e565b9150613bf983612c7e565b925082613c0957613c08613bb4565b5b828204905092915050565b6000613c1f82612c7e565b9150613c2a83612c7e565b925082613c3a57613c39613bb4565b5b828206905092915050565b7f4e487b7100000000000000000000000000000000000000000000000000000000600052603260045260246000fd5b7f45524337323155524953746f726167653a2055524920736574206f66206e6f6e60008201527f6578697374656e7420746f6b656e000000000000000000000000000000000000602082015250565b6000613cd0602e83612dd1565b9150613cdb82613c74565b604082019050919050565b60006020820190508181036000830152613cff81613cc3565b9050919050565b7f4552433732313a20617070726f766520746f2063616c6c657200000000000000600082015250565b6000613d3c601983612dd1565b9150613d4782613d06565b602082019050919050565b60006020820190508181036000830152613d6b81613d2f565b9050919050565b7f4552433732313a207472616e7366657220746f206e6f6e20455243373231526560008201527f63656976657220696d706c656d656e7465720000000000000000000000000000602082015250565b6000613dce603283612dd1565b9150613dd982613d72565b604082019050919050565b60006020820190508181036000830152613dfd81613dc1565b9050919050565b600081905092915050565b6000613e1a82612dc6565b613e248185613e04565b9350613e34818560208601612de2565b80840191505092915050565b6000613e4c8285613e0f565b9150613e588284613e0f565b91508190509392505050565b7f43616e6e6f74207472616e7366657220736f756c626f756e6420746f6b656e73600082015250565b6000613e9a602083612dd1565b9150613ea582613e64565b602082019050919050565b60006020820190508181036000830152613ec981613e8d565b9050919050565b600081519050919050565b600082825260208201905092915050565b6000613ef782613ed0565b613f018185613edb565b9350613f11818560208601612de2565b613f1a81612e15565b840191505092915050565b6000608082019050613f3a6000830187612eb3565b613f476020830186612eb3565b613f546040830185612ce1565b8181036060830152613f668184613eec565b905095945050505050565b600081519050613f8081612d37565b92915050565b600060208284031215613f9c57613f9b612c74565b5b6000613faa84828501613f71565b91505092915050565b7f4552433732313a206d696e7420746f20746865207a65726f2061646472657373600082015250565b6000613fe9602083612dd1565b9150613ff482613fb3565b602082019050919050565b6000602082019050818103600083015261401881613fdc565b9050919050565b7f4552433732313a20746f6b656e20616c7265616479206d696e74656400000000600082015250565b6000614055601c83612dd1565b91506140608261401f565b602082019050919050565b6000602082019050818103600083015261408481614048565b905091905056fea2646970667358221220ac6ea3a3c224f277539120a04c678efdb9b5c1b61875edde0cd09cf681fc7e8764736f6c63430008090033",
  "linkReferences": {},
  "deployedLinkReferences": {}
}