{
  "_format": "hh-sol-artifact-1",
  "contractName": "WarrentyNFT",
  "sourceName": "contracts/WarrentyNFT.sol",
  "abi": [
    {
      "inputs": [],
      "stateMutability": "nonpayable",
      "type": "constructor"
    },
    {
      "anonymous": false,
      "inputs": [
        {
          "indexed": true,
          "internalType": "address",
          "name": "owner",
          "type": "address"
        },
        {
          "indexed": true,
          "internalType": "address",
          "name": "approved",
          "type": "address"
        },
        {
          "indexed": true,
          "internalType": "uint256",
          "name": "tokenId",
          "type": "uint256"
        }
      ],
      "name": "Approval",
      "type": "event"
    },
    {
      "anonymous": false,
      "inputs": [
        {
          "indexed": true,
          "internalType": "address",
          "name": "owner",
          "type": "address"
        },
        {
          "indexed": true,
          "internalType": "address",
          "name": "operator",
          "type": "address"
        },
        {
          "indexed": false,
          "internalType": "bool",
          "name": "approved",
          "type": "bool"
        }
      ],
      "name": "ApprovalForAll",
      "type": "event"
    },
    {
      "anonymous": false,
      "inputs": [
        {
          "indexed": true,
          "internalType": "address",
          "name": "previousOwner",
          "type": "address"
        },
        {
          "indexed": true,
          "internalType": "address",
          "name": "newOwner",
          "type": "address"
        }
      ],
      "name": "OwnershipTransferred",
      "type": "event"
    },
    {
      "anonymous": false,
      "inputs": [
        {
          "indexed": true,
          "internalType": "uint256",
          "name": "tokenID",
          "type": "uint256"
        }
      ],
      "name": "Repair",
      "type": "event"
    },
    {
      "anonymous": false,
      "inputs": [
        {
          "indexed": true,
          "internalType": "uint256",
          "name": "tokenID",
          "type": "uint256"
        },
        {
          "indexed": true,
          "internalType": "uint256",
          "name": "newTokenID",
          "type": "uint256"
        }
      ],
      "name": "Replace",
      "type": "event"
    },
    {
      "anonymous": false,
      "inputs": [
        {
          "indexed": true,
          "internalType": "address",
          "name": "from",
          "type": "address"
        },
        {
          "indexed": true,
          "internalType": "address",
          "name": "to",
          "type": "address"
        },
        {
          "indexed": true,
          "internalType": "uint256",
          "name": "tokenId",
          "type": "uint256"
        }
      ],
      "name": "Transfer",
      "type": "event"
    },
    {
      "inputs": [
        {
          "internalType": "address",
          "name": "_admin",
          "type": "address"
        }
      ],
      "name": "addAdmin",
      "outputs": [],
      "stateMutability": "nonpayable",
      "type": "function"
    },
    {
      "inputs": [
        {
          "internalType": "uint256",
          "name": "productID",
          "type": "uint256"
        },
        {
          "internalType": "uint256",
          "name": "_warrentyPeriod",
          "type": "uint256"
        },
        {
          "internalType": "bool",
          "name": "_isSoulbound",
          "type": "bool"
        }
      ],
      "name": "addProduct",
      "outputs": [],
      "stateMutability": "nonpayable",
      "type": "function"
    },
    {
      "inputs": [
        {
          "internalType": "address",
          "name": "_seller",
          "type": "address"
        }
      ],
      "name": "addSeller",
      "outputs": [],
      "stateMutability": "nonpayable",
      "type": "function"
    },
    {
      "inputs": [
        {
          "internalType": "address",
          "name": "to",
          "type": "address"
        },
        {
          "internalType": "uint256",
          "name": "tokenId",
          "type": "uint256"
        }
      ],
      "name": "approve",
      "outputs": [],
      "stateMutability": "nonpayable",
      "type": "function"
    },
    {
      "inputs": [
        {
          "internalType": "address",
          "name": "owner",
          "type": "address"
        }
      ],
      "name": "balanceOf",
      "outputs": [
        {
          "internalType": "uint256",
          "name": "",
          "type": "uint256"
        }
      ],
      "stateMutability": "view",
      "type": "function"
    },
    {
      "inputs": [
        {
          "internalType": "uint256",
          "name": "tokenId",
          "type": "uint256"
        }
      ],
      "name": "burn",
      "outputs": [],
      "stateMutability": "nonpayable",
      "type": "function"
    },
    {
      "inputs": [
        {
          "internalType": "uint256",
          "name": "tokenId",
          "type": "uint256"
        }
      ],
      "name": "getApproved",
      "outputs": [
        {
          "internalType": "address",
          "name": "",
          "type": "address"
        }
      ],
      "stateMutability": "view",
      "type": "function"
    },
    {
      "inputs": [
        {
          "internalType": "address",
          "name": "",
          "type": "address"
        }
      ],
      "name": "isAdmin",
      "outputs": [
        {
          "internalType": "bool",
          "name": "",
          "type": "bool"
        }
      ],
      "stateMutability": "view",
      "type": "function"
    },
    {
      "inputs": [
        {
          "internalType": "address",
          "name": "owner",
          "type": "address"
        },
        {
          "internalType": "address",
          "name": "operator",
          "type": "address"
        }
      ],
      "name": "isApprovedForAll",
      "outputs": [
        {
          "internalType": "bool",
          "name": "",
          "type": "bool"
        }
      ],
      "stateMutability": "view",
      "type": "function"
    },
    {
      "inputs": [
        {
          "internalType": "address",
          "name": "",
          "type": "address"
        }
      ],
      "name": "isSeller",
      "outputs": [
        {
          "internalType": "bool",
          "name": "",
          "type": "bool"
        }
      ],
      "stateMutability": "view",
      "type": "function"
    },
    {
      "inputs": [
        {
          "internalType": "address",
          "name": "buyer",
          "type": "address"
        },
        {
          "internalType": "uint256",
          "name": "productID",
          "type": "uint256"
        },
        {
          "internalType": "uint256",
          "name": "tokenID",
          "type": "uint256"
        }
      ],
      "name": "mintWarrentyNFT",
      "outputs": [],
      "stateMutability": "nonpayable",
      "type": "function"
    },
    {
      "inputs": [],
      "name": "name",
      "outputs": [
        {
          "internalType": "string",
          "name": "",
          "type": "string"
        }
      ],
      "stateMutability": "view",
      "type": "function"
    },
    {
      "inputs": [],
      "name": "owner",
      "outputs": [
        {
          "internalType": "address",
          "name": "",
          "type": "address"
        }
      ],
      "stateMutability": "view",
      "type": "function"
    },
    {
      "inputs": [
        {
          "internalType": "uint256",
          "name": "tokenId",
          "type": "uint256"
        }
      ],
      "name": "ownerOf",
      "outputs": [
        {
          "internalType": "address",
          "name": "",
          "type": "address"
        }
      ],
      "stateMutability": "view",
      "type": "function"
    },
    {
      "inputs": [
        {
          "internalType": "address",
          "name": "_admin",
          "type": "address"
        }
      ],
      "name": "removeAdmin",
      "outputs": [],
      "stateMutability": "nonpayable",
      "type": "function"
    },
    {
      "inputs": [
        {
          "internalType": "address",
          "name": "_seller",
          "type": "address"
        }
      ],
      "name": "removeSeller",
      "outputs": [],
      "stateMutability": "nonpayable",
      "type": "function"
    },
    {
      "inputs": [],
      "name": "renounceOwnership",
      "outputs": [],
      "stateMutability": "nonpayable",
      "type": "function"
    },
    {
      "inputs": [
        {
          "internalType": "uint256",
          "name": "tokenID",
          "type": "uint256"
        }
      ],
      "name": "repairProduct",
      "outputs": [],
      "stateMutability": "nonpayable",
      "type": "function"
    },
    {
      "inputs": [
        {
          "internalType": "uint256",
          "name": "tokenID",
          "type": "uint256"
        },
        {
          "internalType": "uint256",
          "name": "newTokenID",
          "type": "uint256"
        }
      ],
      "name": "replaceProduct",
      "outputs": [],
      "stateMutability": "nonpayable",
      "type": "function"
    },
    {
      "inputs": [
        {
          "internalType": "address",
          "name": "from",
          "type": "address"
        },
        {
          "internalType": "address",
          "name": "to",
          "type": "address"
        },
        {
          "internalType": "uint256",
          "name": "tokenId",
          "type": "uint256"
        }
      ],
      "name": "safeTransferFrom",
      "outputs": [],
      "stateMutability": "nonpayable",
      "type": "function"
    },
    {
      "inputs": [
        {
          "internalType": "address",
          "name": "from",
          "type": "address"
        },
        {
          "internalType": "address",
          "name": "to",
          "type": "address"
        },
        {
          "internalType": "uint256",
          "name": "tokenId",
          "type": "uint256"
        },
        {
          "internalType": "bytes",
          "name": "data",
          "type": "bytes"
        }
      ],
      "name": "safeTransferFrom",
      "outputs": [],
      "stateMutability": "nonpayable",
      "type": "function"
    },
    {
      "inputs": [
        {
          "internalType": "address",
          "name": "operator",
          "type": "address"
        },
        {
          "internalType": "bool",
          "name": "approved",
          "type": "bool"
        }
      ],
      "name": "setApprovalForAll",
      "outputs": [],
      "stateMutability": "nonpayable",
      "type": "function"
    },
    {
      "inputs": [
        {
          "internalType": "bytes4",
          "name": "interfaceId",
          "type": "bytes4"
        }
      ],
      "name": "supportsInterface",
      "outputs": [
        {
          "internalType": "bool",
          "name": "",
          "type": "bool"
        }
      ],
      "stateMutability": "view",
      "type": "function"
    },
    {
      "inputs": [],
      "name": "symbol",
      "outputs": [
        {
          "internalType": "string",
          "name": "",
          "type": "string"
        }
      ],
      "stateMutability": "view",
      "type": "function"
    },
    {
      "inputs": [
        {
          "internalType": "uint256",
          "name": "tokenId",
          "type": "uint256"
        }
      ],
      "name": "tokenURI",
      "outputs": [
        {
          "internalType": "string",
          "name": "",
          "type": "string"
        }
      ],
      "stateMutability": "view",
      "type": "function"
    },
    {
      "inputs": [
        {
          "internalType": "address",
          "name": "from",
          "type": "address"
        },
        {
          "internalType": "address",
          "name": "to",
          "type": "address"
        },
        {
          "internalType": "uint256",
          "name": "tokenId",
          "type": "uint256"
        }
      ],
      "name": "transferFrom",
      "outputs": [],
      "stateMutability": "nonpayable",
      "type": "function"
    },
    {
      "inputs": [
        {
          "internalType": "address",
          "name": "newOwner",
          "type": "address"
        }
      ],
      "name": "transferOwnership",
      "outputs": [],
      "stateMutability": "nonpayable",
      "type": "function"
    }
  ],
  "bytecode": "0x60806040523480156200001157600080fd5b506040518060400160405280600881526020017f57617272656e74790000000000000000000000000000000000000000000000008152506040518060400160405280600181526020017f570000000000000000000000000000000000000000000000000000000000000081525081600090805190602001906200009692919062000261565b508060019080519060200190620000af92919062000261565b505050620000d2620000c66200019360201b60201c565b6200019b60201b60201c565b33600860006101000a81548173ffffffffffffffffffffffffffffffffffffffff021916908373ffffffffffffffffffffffffffffffffffffffff160217905550600160096000600860009054906101000a900473ffffffffffffffffffffffffffffffffffffffff1673ffffffffffffffffffffffffffffffffffffffff1673ffffffffffffffffffffffffffffffffffffffff16815260200190815260200160002060006101000a81548160ff02191690831515021790555062000376565b600033905090565b6000600760009054906101000a900473ffffffffffffffffffffffffffffffffffffffff16905081600760006101000a81548173ffffffffffffffffffffffffffffffffffffffff021916908373ffffffffffffffffffffffffffffffffffffffff1602179055508173ffffffffffffffffffffffffffffffffffffffff168173ffffffffffffffffffffffffffffffffffffffff167f8be0079c531659141344cd1fd0a4f28419497f9722a3daafe3b4186f6b6457e060405160405180910390a35050565b8280546200026f9062000340565b90600052602060002090601f016020900481019282620002935760008555620002df565b82601f10620002ae57805160ff1916838001178555620002df565b82800160010185558215620002df579182015b82811115620002de578251825591602001919060010190620002c1565b5b509050620002ee9190620002f2565b5090565b5b808211156200030d576000816000905550600101620002f3565b5090565b7f4e487b7100000000000000000000000000000000000000000000000000000000600052602260045260246000fd5b600060028204905060018216806200035957607f821691505b6020821081141562000370576200036f62000311565b5b50919050565b613e9580620003866000396000f3fe608060405234801561001057600080fd5b50600436106101a95760003560e01c8063715018a6116100f9578063c87b56dd11610097578063ee95feaf11610071578063ee95feaf146104b2578063f2fde38b146104e2578063fa173670146104fe578063fc45e66c1461051a576101a9565b8063c87b56dd14610436578063d93fabfa14610466578063e985e9c514610482576101a9565b80638da5cb5b116100d35780638da5cb5b146103c257806395d89b41146103e0578063a22cb465146103fe578063b88d4fde1461041a576101a9565b8063715018a6146103805780637cb9cf541461038a578063803a93da146103a6576101a9565b806323b872dd1161016657806342966c681161014057806342966c68146102e85780636352211e14610304578063704802751461033457806370a0823114610350576101a9565b806323b872dd1461028057806324d7806c1461029c57806342842e0e146102cc576101a9565b806301ffc9a7146101ae57806306fdde03146101de578063081812fc146101fc578063095ea7b31461022c578063109b3d1f146102485780631785f53c14610264575b600080fd5b6101c860048036038101906101c39190612aaa565b610536565b6040516101d59190612af2565b60405180910390f35b6101e6610618565b6040516101f39190612ba6565b60405180910390f35b61021660048036038101906102119190612bfe565b6106aa565b6040516102239190612c6c565b60405180910390f35b61024660048036038101906102419190612cb3565b6106f0565b005b610262600480360381019061025d9190612bfe565b610808565b005b61027e60048036038101906102799190612cf3565b610a56565b005b61029a60048036038101906102959190612d20565b610b3d565b005b6102b660048036038101906102b19190612cf3565b610b9d565b6040516102c39190612af2565b60405180910390f35b6102e660048036038101906102e19190612d20565b610bbd565b005b61030260048036038101906102fd9190612bfe565b610bdd565b005b61031e60048036038101906103199190612bfe565b610c39565b60405161032b9190612c6c565b60405180910390f35b61034e60048036038101906103499190612cf3565b610ceb565b005b61036a60048036038101906103659190612cf3565b610dd2565b6040516103779190612d82565b60405180910390f35b610388610e8a565b005b6103a4600480360381019061039f9190612cf3565b610e9e565b005b6103c060048036038101906103bb9190612d9d565b610f85565b005b6103ca6110c7565b6040516103d79190612c6c565b60405180910390f35b6103e86110f1565b6040516103f59190612ba6565b60405180910390f35b61041860048036038101906104139190612e1c565b611183565b005b610434600480360381019061042f9190612f91565b611199565b005b610450600480360381019061044b9190612bfe565b6111fb565b60405161045d9190612ba6565b60405180910390f35b610480600480360381019061047b9190612cf3565b61120d565b005b61049c60048036038101906104979190613014565b6112f4565b6040516104a99190612af2565b60405180910390f35b6104cc60048036038101906104c79190612cf3565b611388565b6040516104d99190612af2565b60405180910390f35b6104fc60048036038101906104f79190612cf3565b6113a8565b005b61051860048036038101906105139190613054565b61142c565b005b610534600480360381019061052f9190613094565b6116a7565b005b60007f80ac58cd000000000000000000000000000000000000000000000000000000007bffffffffffffffffffffffffffffffffffffffffffffffffffffffff1916827bffffffffffffffffffffffffffffffffffffffffffffffffffffffff1916148061060157507f5b5e139f000000000000000000000000000000000000000000000000000000007bffffffffffffffffffffffffffffffffffffffffffffffffffffffff1916827bffffffffffffffffffffffffffffffffffffffffffffffffffffffff1916145b8061061157506106108261177c565b5b9050919050565b60606000805461062790613116565b80601f016020809104026020016040519081016040528092919081815260200182805461065390613116565b80156106a05780601f10610675576101008083540402835291602001916106a0565b820191906000526020600020905b81548152906001019060200180831161068357829003601f168201915b5050505050905090565b60006106b5826117e6565b6004600083815260200190815260200160002060009054906101000a900473ffffffffffffffffffffffffffffffffffffffff169050919050565b60006106fb82610c39565b90508073ffffffffffffffffffffffffffffffffffffffff168373ffffffffffffffffffffffffffffffffffffffff16141561076c576040517f08c379a0000000000000000000000000000000000000000000000000000000008152600401610763906131ba565b60405180910390fd5b8073ffffffffffffffffffffffffffffffffffffffff1661078b611831565b73ffffffffffffffffffffffffffffffffffffffff1614806107ba57506107b9816107b4611831565b6112f4565b5b6107f9576040517f08c379a00000000000000000000000000000000000000000000000000000000081526004016107f09061324c565b60405180910390fd5b6108038383611839565b505050565b600a60003373ffffffffffffffffffffffffffffffffffffffff1673ffffffffffffffffffffffffffffffffffffffff16815260200190815260200160002060009054906101000a900460ff16610894576040517f08c379a000000000000000000000000000000000000000000000000000000000815260040161088b906132b8565b60405180910390fd5b80600073ffffffffffffffffffffffffffffffffffffffff166108b682610c39565b73ffffffffffffffffffffffffffffffffffffffff16141561090d576040517f08c379a00000000000000000000000000000000000000000000000000000000081526004016109049061334a565b60405180910390fd5b81426010600083815260200190815260200160002054600e6000848152602001908152602001600020546109419190613399565b11610981576040517f08c379a000000000000000000000000000000000000000000000000000000000815260040161097890613461565b60405180910390fd5b823373ffffffffffffffffffffffffffffffffffffffff16600d600083815260200190815260200160002060009054906101000a900473ffffffffffffffffffffffffffffffffffffffff1673ffffffffffffffffffffffffffffffffffffffff1614610a23576040517f08c379a0000000000000000000000000000000000000000000000000000000008152600401610a1a906134cd565b60405180910390fd5b837f10ec01e7da8806f72699d63daf6c544662592f529db723a941af7aba0d2c3a2a60405160405180910390a250505050565b600960003373ffffffffffffffffffffffffffffffffffffffff1673ffffffffffffffffffffffffffffffffffffffff16815260200190815260200160002060009054906101000a900460ff16610ae2576040517f08c379a0000000000000000000000000000000000000000000000000000000008152600401610ad990613539565b60405180910390fd5b6000600960008373ffffffffffffffffffffffffffffffffffffffff1673ffffffffffffffffffffffffffffffffffffffff16815260200190815260200160002060006101000a81548160ff02191690831515021790555050565b610b4e610b48611831565b826118f2565b610b8d576040517f08c379a0000000000000000000000000000000000000000000000000000000008152600401610b84906135cb565b60405180910390fd5b610b98838383611987565b505050565b60096020528060005260406000206000915054906101000a900460ff1681565b610bd883838360405180602001604052806000815250611199565b505050565b610bee610be8611831565b826118f2565b610c2d576040517f08c379a0000000000000000000000000000000000000000000000000000000008152600401610c24906135cb565b60405180910390fd5b610c3681611bee565b50565b6000806002600084815260200190815260200160002060009054906101000a900473ffffffffffffffffffffffffffffffffffffffff169050600073ffffffffffffffffffffffffffffffffffffffff168173ffffffffffffffffffffffffffffffffffffffff161415610ce2576040517f08c379a0000000000000000000000000000000000000000000000000000000008152600401610cd990613637565b60405180910390fd5b80915050919050565b600960003373ffffffffffffffffffffffffffffffffffffffff1673ffffffffffffffffffffffffffffffffffffffff16815260200190815260200160002060009054906101000a900460ff16610d77576040517f08c379a0000000000000000000000000000000000000000000000000000000008152600401610d6e90613539565b60405180910390fd5b6001600960008373ffffffffffffffffffffffffffffffffffffffff1673ffffffffffffffffffffffffffffffffffffffff16815260200190815260200160002060006101000a81548160ff02191690831515021790555050565b60008073ffffffffffffffffffffffffffffffffffffffff168273ffffffffffffffffffffffffffffffffffffffff161415610e43576040517f08c379a0000000000000000000000000000000000000000000000000000000008152600401610e3a906136c9565b60405180910390fd5b600360008373ffffffffffffffffffffffffffffffffffffffff1673ffffffffffffffffffffffffffffffffffffffff168152602001908152602001600020549050919050565b610e92611bfa565b610e9c6000611c78565b565b600960003373ffffffffffffffffffffffffffffffffffffffff1673ffffffffffffffffffffffffffffffffffffffff16815260200190815260200160002060009054906101000a900460ff16610f2a576040517f08c379a0000000000000000000000000000000000000000000000000000000008152600401610f2190613539565b60405180910390fd5b6000600a60008373ffffffffffffffffffffffffffffffffffffffff1673ffffffffffffffffffffffffffffffffffffffff16815260200190815260200160002060006101000a81548160ff02191690831515021790555050565b600a60003373ffffffffffffffffffffffffffffffffffffffff1673ffffffffffffffffffffffffffffffffffffffff16815260200190815260200160002060009054906101000a900460ff16611011576040517f08c379a0000000000000000000000000000000000000000000000000000000008152600401611008906132b8565b60405180910390fd5b33600d600083815260200190815260200160002060006101000a81548173ffffffffffffffffffffffffffffffffffffffff021916908373ffffffffffffffffffffffffffffffffffffffff16021790555042600e600083815260200190815260200160002081905550600c60008381526020019081526020016000205460106000838152602001908152602001600020819055506110b08382611d3e565b6110c2816110bd84611d5c565b611ebd565b505050565b6000600760009054906101000a900473ffffffffffffffffffffffffffffffffffffffff16905090565b60606001805461110090613116565b80601f016020809104026020016040519081016040528092919081815260200182805461112c90613116565b80156111795780601f1061114e57610100808354040283529160200191611179565b820191906000526020600020905b81548152906001019060200180831161115c57829003601f168201915b5050505050905090565b61119561118e611831565b8383611f31565b5050565b6111aa6111a4611831565b836118f2565b6111e9576040517f08c379a00000000000000000000000000000000000000000000000000000000081526004016111e0906135cb565b60405180910390fd5b6111f58484848461209e565b50505050565b6060611206826120fa565b9050919050565b600960003373ffffffffffffffffffffffffffffffffffffffff1673ffffffffffffffffffffffffffffffffffffffff16815260200190815260200160002060009054906101000a900460ff16611299576040517f08c379a000000000000000000000000000000000000000000000000000000000815260040161129090613539565b60405180910390fd5b6001600a60008373ffffffffffffffffffffffffffffffffffffffff1673ffffffffffffffffffffffffffffffffffffffff16815260200190815260200160002060006101000a81548160ff02191690831515021790555050565b6000600560008473ffffffffffffffffffffffffffffffffffffffff1673ffffffffffffffffffffffffffffffffffffffff16815260200190815260200160002060008373ffffffffffffffffffffffffffffffffffffffff1673ffffffffffffffffffffffffffffffffffffffff16815260200190815260200160002060009054906101000a900460ff16905092915050565b600a6020528060005260406000206000915054906101000a900460ff1681565b6113b0611bfa565b600073ffffffffffffffffffffffffffffffffffffffff168173ffffffffffffffffffffffffffffffffffffffff161415611420576040517f08c379a00000000000000000000000000000000000000000000000000000000081526004016114179061375b565b60405180910390fd5b61142981611c78565b50565b600a60003373ffffffffffffffffffffffffffffffffffffffff1673ffffffffffffffffffffffffffffffffffffffff16815260200190815260200160002060009054906101000a900460ff166114b8576040517f08c379a00000000000000000000000000000000000000000000000000000000081526004016114af906132b8565b60405180910390fd5b81600073ffffffffffffffffffffffffffffffffffffffff166114da82610c39565b73ffffffffffffffffffffffffffffffffffffffff161415611531576040517f08c379a00000000000000000000000000000000000000000000000000000000081526004016115289061334a565b60405180910390fd5b82426010600083815260200190815260200160002054600e6000848152602001908152602001600020546115659190613399565b116115a5576040517f08c379a000000000000000000000000000000000000000000000000000000000815260040161159c90613461565b60405180910390fd5b833373ffffffffffffffffffffffffffffffffffffffff16600d600083815260200190815260200160002060009054906101000a900473ffffffffffffffffffffffffffffffffffffffff1673ffffffffffffffffffffffffffffffffffffffff1614611647576040517f08c379a000000000000000000000000000000000000000000000000000000000815260040161163e906134cd565b60405180910390fd5b600e600086815260200190815260200160002054600e60008681526020019081526020016000208190555083857f834caf0d657e1c8ce84ea94dbc4257c78fb77ad2bcd43a096c37bb539928454260405160405180910390a35050505050565b600a60003373ffffffffffffffffffffffffffffffffffffffff1673ffffffffffffffffffffffffffffffffffffffff16815260200190815260200160002060009054906101000a900460ff16611733576040517f08c379a000000000000000000000000000000000000000000000000000000000815260040161172a906132b8565b60405180910390fd5b8160106000858152602001908152602001600020819055508015600b600085815260200190815260200160002060006101000a81548160ff021916908315150217905550505050565b60007f01ffc9a7000000000000000000000000000000000000000000000000000000007bffffffffffffffffffffffffffffffffffffffffffffffffffffffff1916827bffffffffffffffffffffffffffffffffffffffffffffffffffffffff1916149050919050565b6117ef8161220d565b61182e576040517f08c379a000000000000000000000000000000000000000000000000000000000815260040161182590613637565b60405180910390fd5b50565b600033905090565b816004600083815260200190815260200160002060006101000a81548173ffffffffffffffffffffffffffffffffffffffff021916908373ffffffffffffffffffffffffffffffffffffffff160217905550808273ffffffffffffffffffffffffffffffffffffffff166118ac83610c39565b73ffffffffffffffffffffffffffffffffffffffff167f8c5be1e5ebec7d5bd14f71427d1e84f3dd0314c0f7b2291e5b200ac8c7c3b92560405160405180910390a45050565b6000806118fe83610c39565b90508073ffffffffffffffffffffffffffffffffffffffff168473ffffffffffffffffffffffffffffffffffffffff161480611940575061193f81856112f4565b5b8061197e57508373ffffffffffffffffffffffffffffffffffffffff16611966846106aa565b73ffffffffffffffffffffffffffffffffffffffff16145b91505092915050565b8273ffffffffffffffffffffffffffffffffffffffff166119a782610c39565b73ffffffffffffffffffffffffffffffffffffffff16146119fd576040517f08c379a00000000000000000000000000000000000000000000000000000000081526004016119f4906137ed565b60405180910390fd5b600073ffffffffffffffffffffffffffffffffffffffff168273ffffffffffffffffffffffffffffffffffffffff161415611a6d576040517f08c379a0000000000000000000000000000000000000000000000000000000008152600401611a649061387f565b60405180910390fd5b611a78838383612279565b611a83600082611839565b6001600360008573ffffffffffffffffffffffffffffffffffffffff1673ffffffffffffffffffffffffffffffffffffffff1681526020019081526020016000206000828254611ad3919061389f565b925050819055506001600360008473ffffffffffffffffffffffffffffffffffffffff1673ffffffffffffffffffffffffffffffffffffffff1681526020019081526020016000206000828254611b2a9190613399565b92505081905550816002600083815260200190815260200160002060006101000a81548173ffffffffffffffffffffffffffffffffffffffff021916908373ffffffffffffffffffffffffffffffffffffffff160217905550808273ffffffffffffffffffffffffffffffffffffffff168473ffffffffffffffffffffffffffffffffffffffff167fddf252ad1be2c89b69c2b068fc378daa952ba7f163c4a11628f55a4df523b3ef60405160405180910390a4611be9838383612352565b505050565b611bf781612357565b50565b611c02611831565b73ffffffffffffffffffffffffffffffffffffffff16611c206110c7565b73ffffffffffffffffffffffffffffffffffffffff1614611c76576040517f08c379a0000000000000000000000000000000000000000000000000000000008152600401611c6d9061391f565b60405180910390fd5b565b6000600760009054906101000a900473ffffffffffffffffffffffffffffffffffffffff16905081600760006101000a81548173ffffffffffffffffffffffffffffffffffffffff021916908373ffffffffffffffffffffffffffffffffffffffff1602179055508173ffffffffffffffffffffffffffffffffffffffff168173ffffffffffffffffffffffffffffffffffffffff167f8be0079c531659141344cd1fd0a4f28419497f9722a3daafe3b4186f6b6457e060405160405180910390a35050565b611d588282604051806020016040528060008152506123aa565b5050565b60606000821415611da4576040518060400160405280600181526020017f30000000000000000000000000000000000000000000000000000000000000008152509050611eb8565b600082905060005b60008214611dd6578080611dbf9061393f565b915050600a82611dcf91906139b7565b9150611dac565b60008167ffffffffffffffff811115611df257611df1612e66565b5b6040519080825280601f01601f191660200182016040528015611e245781602001600182028036833780820191505090505b5090505b60008514611eb157600182611e3d919061389f565b9150600a85611e4c91906139e8565b6030611e589190613399565b60f81b818381518110611e6e57611e6d613a19565b5b60200101907effffffffffffffffffffffffffffffffffffffffffffffffffffffffffffff1916908160001a905350600a85611eaa91906139b7565b9450611e28565b8093505050505b919050565b611ec68261220d565b611f05576040517f08c379a0000000000000000000000000000000000000000000000000000000008152600401611efc90613aba565b60405180910390fd5b80600660008481526020019081526020016000209080519060200190611f2c92919061295b565b505050565b8173ffffffffffffffffffffffffffffffffffffffff168373ffffffffffffffffffffffffffffffffffffffff161415611fa0576040517f08c379a0000000000000000000000000000000000000000000000000000000008152600401611f9790613b26565b60405180910390fd5b80600560008573ffffffffffffffffffffffffffffffffffffffff1673ffffffffffffffffffffffffffffffffffffffff16815260200190815260200160002060008473ffffffffffffffffffffffffffffffffffffffff1673ffffffffffffffffffffffffffffffffffffffff16815260200190815260200160002060006101000a81548160ff0219169083151502179055508173ffffffffffffffffffffffffffffffffffffffff168373ffffffffffffffffffffffffffffffffffffffff167f17307eab39ab6107e8899845ad3d59bd9653f200f220920489ca2b5937696c31836040516120919190612af2565b60405180910390a3505050565b6120a9848484611987565b6120b584848484612405565b6120f4576040517f08c379a00000000000000000000000000000000000000000000000000000000081526004016120eb90613bb8565b60405180910390fd5b50505050565b6060612105826117e6565b600060066000848152602001908152602001600020805461212590613116565b80601f016020809104026020016040519081016040528092919081815260200182805461215190613116565b801561219e5780601f106121735761010080835404028352916020019161219e565b820191906000526020600020905b81548152906001019060200180831161218157829003601f168201915b5050505050905060006121af61259c565b90506000815114156121c5578192505050612208565b6000825111156121fa5780826040516020016121e2929190613c14565b60405160208183030381529060405292505050612208565b612203846125d9565b925050505b919050565b60008073ffffffffffffffffffffffffffffffffffffffff166002600084815260200190815260200160002060009054906101000a900473ffffffffffffffffffffffffffffffffffffffff1673ffffffffffffffffffffffffffffffffffffffff1614159050919050565b60001515600f600083815260200190815260200160002060009054906101000a900460ff161515141561234d57600073ffffffffffffffffffffffffffffffffffffffff168373ffffffffffffffffffffffffffffffffffffffff16148061230d5750600073ffffffffffffffffffffffffffffffffffffffff168273ffffffffffffffffffffffffffffffffffffffff16145b61234c576040517f08c379a000000000000000000000000000000000000000000000000000000000815260040161234390613c84565b60405180910390fd5b5b505050565b505050565b61236081612641565b600060066000838152602001908152602001600020805461238090613116565b9050146123a7576006600082815260200190815260200160002060006123a691906129e1565b5b50565b6123b4838361275e565b6123c16000848484612405565b612400576040517f08c379a00000000000000000000000000000000000000000000000000000000081526004016123f790613bb8565b60405180910390fd5b505050565b60006124268473ffffffffffffffffffffffffffffffffffffffff16612938565b1561258f578373ffffffffffffffffffffffffffffffffffffffff1663150b7a0261244f611831565b8786866040518563ffffffff1660e01b81526004016124719493929190613cf9565b602060405180830381600087803b15801561248b57600080fd5b505af19250505080156124bc57506040513d601f19601f820116820180604052508101906124b99190613d5a565b60015b61253f573d80600081146124ec576040519150601f19603f3d011682016040523d82523d6000602084013e6124f1565b606091505b50600081511415612537576040517f08c379a000000000000000000000000000000000000000000000000000000000815260040161252e90613bb8565b60405180910390fd5b805181602001fd5b63150b7a0260e01b7bffffffffffffffffffffffffffffffffffffffffffffffffffffffff1916817bffffffffffffffffffffffffffffffffffffffffffffffffffffffff191614915050612594565b600190505b949350505050565b60606040518060400160405280600881526020017f68747470733a2f2f000000000000000000000000000000000000000000000000815250905090565b60606125e4826117e6565b60006125ee61259c565b9050600081511161260e5760405180602001604052806000815250612639565b8061261884611d5c565b604051602001612629929190613c14565b6040516020818303038152906040525b915050919050565b600061264c82610c39565b905061265a81600084612279565b612665600083611839565b6001600360008373ffffffffffffffffffffffffffffffffffffffff1673ffffffffffffffffffffffffffffffffffffffff16815260200190815260200160002060008282546126b5919061389f565b925050819055506002600083815260200190815260200160002060006101000a81549073ffffffffffffffffffffffffffffffffffffffff021916905581600073ffffffffffffffffffffffffffffffffffffffff168273ffffffffffffffffffffffffffffffffffffffff167fddf252ad1be2c89b69c2b068fc378daa952ba7f163c4a11628f55a4df523b3ef60405160405180910390a461275a81600084612352565b5050565b600073ffffffffffffffffffffffffffffffffffffffff168273ffffffffffffffffffffffffffffffffffffffff1614156127ce576040517f08c379a00000000000000000000000000000000000000000000000000000000081526004016127c590613dd3565b60405180910390fd5b6127d78161220d565b15612817576040517f08c379a000000000000000000000000000000000000000000000000000000000815260040161280e90613e3f565b60405180910390fd5b61282360008383612279565b6001600360008473ffffffffffffffffffffffffffffffffffffffff1673ffffffffffffffffffffffffffffffffffffffff16815260200190815260200160002060008282546128739190613399565b92505081905550816002600083815260200190815260200160002060006101000a81548173ffffffffffffffffffffffffffffffffffffffff021916908373ffffffffffffffffffffffffffffffffffffffff160217905550808273ffffffffffffffffffffffffffffffffffffffff16600073ffffffffffffffffffffffffffffffffffffffff167fddf252ad1be2c89b69c2b068fc378daa952ba7f163c4a11628f55a4df523b3ef60405160405180910390a461293460008383612352565b5050565b6000808273ffffffffffffffffffffffffffffffffffffffff163b119050919050565b82805461296790613116565b90600052602060002090601f01602090048101928261298957600085556129d0565b82601f106129a257805160ff19168380011785556129d0565b828001600101855582156129d0579182015b828111156129cf5782518255916020019190600101906129b4565b5b5090506129dd9190612a21565b5090565b5080546129ed90613116565b6000825580601f106129ff5750612a1e565b601f016020900490600052602060002090810190612a1d9190612a21565b5b50565b5b80821115612a3a576000816000905550600101612a22565b5090565b6000604051905090565b600080fd5b600080fd5b60007fffffffff0000000000000000000000000000000000000000000000000000000082169050919050565b612a8781612a52565b8114612a9257600080fd5b50565b600081359050612aa481612a7e565b92915050565b600060208284031215612ac057612abf612a48565b5b6000612ace84828501612a95565b91505092915050565b60008115159050919050565b612aec81612ad7565b82525050565b6000602082019050612b076000830184612ae3565b92915050565b600081519050919050565b600082825260208201905092915050565b60005b83811015612b47578082015181840152602081019050612b2c565b83811115612b56576000848401525b50505050565b6000601f19601f8301169050919050565b6000612b7882612b0d565b612b828185612b18565b9350612b92818560208601612b29565b612b9b81612b5c565b840191505092915050565b60006020820190508181036000830152612bc08184612b6d565b905092915050565b6000819050919050565b612bdb81612bc8565b8114612be657600080fd5b50565b600081359050612bf881612bd2565b92915050565b600060208284031215612c1457612c13612a48565b5b6000612c2284828501612be9565b91505092915050565b600073ffffffffffffffffffffffffffffffffffffffff82169050919050565b6000612c5682612c2b565b9050919050565b612c6681612c4b565b82525050565b6000602082019050612c816000830184612c5d565b92915050565b612c9081612c4b565b8114612c9b57600080fd5b50565b600081359050612cad81612c87565b92915050565b60008060408385031215612cca57612cc9612a48565b5b6000612cd885828601612c9e565b9250506020612ce985828601612be9565b9150509250929050565b600060208284031215612d0957612d08612a48565b5b6000612d1784828501612c9e565b91505092915050565b600080600060608486031215612d3957612d38612a48565b5b6000612d4786828701612c9e565b9350506020612d5886828701612c9e565b9250506040612d6986828701612be9565b9150509250925092565b612d7c81612bc8565b82525050565b6000602082019050612d976000830184612d73565b92915050565b600080600060608486031215612db657612db5612a48565b5b6000612dc486828701612c9e565b9350506020612dd586828701612be9565b9250506040612de686828701612be9565b9150509250925092565b612df981612ad7565b8114612e0457600080fd5b50565b600081359050612e1681612df0565b92915050565b60008060408385031215612e3357612e32612a48565b5b6000612e4185828601612c9e565b9250506020612e5285828601612e07565b9150509250929050565b600080fd5b600080fd5b7f4e487b7100000000000000000000000000000000000000000000000000000000600052604160045260246000fd5b612e9e82612b5c565b810181811067ffffffffffffffff82111715612ebd57612ebc612e66565b5b80604052505050565b6000612ed0612a3e565b9050612edc8282612e95565b919050565b600067ffffffffffffffff821115612efc57612efb612e66565b5b612f0582612b5c565b9050602081019050919050565b82818337600083830152505050565b6000612f34612f2f84612ee1565b612ec6565b905082815260208101848484011115612f5057612f4f612e61565b5b612f5b848285612f12565b509392505050565b600082601f830112612f7857612f77612e5c565b5b8135612f88848260208601612f21565b91505092915050565b60008060008060808587031215612fab57612faa612a48565b5b6000612fb987828801612c9e565b9450506020612fca87828801612c9e565b9350506040612fdb87828801612be9565b925050606085013567ffffffffffffffff811115612ffc57612ffb612a4d565b5b61300887828801612f63565b91505092959194509250565b6000806040838503121561302b5761302a612a48565b5b600061303985828601612c9e565b925050602061304a85828601612c9e565b9150509250929050565b6000806040838503121561306b5761306a612a48565b5b600061307985828601612be9565b925050602061308a85828601612be9565b9150509250929050565b6000806000606084860312156130ad576130ac612a48565b5b60006130bb86828701612be9565b93505060206130cc86828701612be9565b92505060406130dd86828701612e07565b9150509250925092565b7f4e487b7100000000000000000000000000000000000000000000000000000000600052602260045260246000fd5b6000600282049050600182168061312e57607f821691505b60208210811415613142576131416130e7565b5b50919050565b7f4552433732313a20617070726f76616c20746f2063757272656e74206f776e6560008201527f7200000000000000000000000000000000000000000000000000000000000000602082015250565b60006131a4602183612b18565b91506131af82613148565b604082019050919050565b600060208201905081810360008301526131d381613197565b9050919050565b7f4552433732313a20617070726f76652063616c6c6572206973206e6f7420746f60008201527f6b656e206f776e6572206e6f7220617070726f76656420666f7220616c6c0000602082015250565b6000613236603e83612b18565b9150613241826131da565b604082019050919050565b6000602082019050818103600083015261326581613229565b9050919050565b7f53656c6c6572206f6e6c792066756e6374696f6e000000000000000000000000600082015250565b60006132a2601483612b18565b91506132ad8261326c565b602082019050919050565b600060208201905081810360008301526132d181613295565b9050919050565b7f5468652070726f647563742065697468657220646f6573206e6f74206578697360008201527f74206f7220686173206e6f74206265656e20736f6c6420796574000000000000602082015250565b6000613334603a83612b18565b915061333f826132d8565b604082019050919050565b6000602082019050818103600083015261336381613327565b9050919050565b7f4e487b7100000000000000000000000000000000000000000000000000000000600052601160045260246000fd5b60006133a482612bc8565b91506133af83612bc8565b9250827fffffffffffffffffffffffffffffffffffffffffffffffffffffffffffffffff038211156133e4576133e361336a565b5b828201905092915050565b7f5468652070726f64756374206973206e6f7420696e2077617272616e7479207060008201527f6572696f64000000000000000000000000000000000000000000000000000000602082015250565b600061344b602583612b18565b9150613456826133ef565b604082019050919050565b6000602082019050818103600083015261347a8161343e565b9050919050565b7f596f7520617265206e6f74207468652073656c6c657200000000000000000000600082015250565b60006134b7601683612b18565b91506134c282613481565b602082019050919050565b600060208201905081810360008301526134e6816134aa565b9050919050565b7f41646d696e206f6e6c792066756e6374696f6e00000000000000000000000000600082015250565b6000613523601383612b18565b915061352e826134ed565b602082019050919050565b6000602082019050818103600083015261355281613516565b9050919050565b7f4552433732313a2063616c6c6572206973206e6f7420746f6b656e206f776e6560008201527f72206e6f7220617070726f766564000000000000000000000000000000000000602082015250565b60006135b5602e83612b18565b91506135c082613559565b604082019050919050565b600060208201905081810360008301526135e4816135a8565b9050919050565b7f4552433732313a20696e76616c696420746f6b656e2049440000000000000000600082015250565b6000613621601883612b18565b915061362c826135eb565b602082019050919050565b6000602082019050818103600083015261365081613614565b9050919050565b7f4552433732313a2061646472657373207a65726f206973206e6f74206120766160008201527f6c6964206f776e65720000000000000000000000000000000000000000000000602082015250565b60006136b3602983612b18565b91506136be82613657565b604082019050919050565b600060208201905081810360008301526136e2816136a6565b9050919050565b7f4f776e61626c653a206e6577206f776e657220697320746865207a65726f206160008201527f6464726573730000000000000000000000000000000000000000000000000000602082015250565b6000613745602683612b18565b9150613750826136e9565b604082019050919050565b6000602082019050818103600083015261377481613738565b9050919050565b7f4552433732313a207472616e736665722066726f6d20696e636f72726563742060008201527f6f776e6572000000000000000000000000000000000000000000000000000000602082015250565b60006137d7602583612b18565b91506137e28261377b565b604082019050919050565b60006020820190508181036000830152613806816137ca565b9050919050565b7f4552433732313a207472616e7366657220746f20746865207a65726f2061646460008201527f7265737300000000000000000000000000000000000000000000000000000000602082015250565b6000613869602483612b18565b91506138748261380d565b604082019050919050565b600060208201905081810360008301526138988161385c565b9050919050565b60006138aa82612bc8565b91506138b583612bc8565b9250828210156138c8576138c761336a565b5b828203905092915050565b7f4f776e61626c653a2063616c6c6572206973206e6f7420746865206f776e6572600082015250565b6000613909602083612b18565b9150613914826138d3565b602082019050919050565b60006020820190508181036000830152613938816138fc565b9050919050565b600061394a82612bc8565b91507fffffffffffffffffffffffffffffffffffffffffffffffffffffffffffffffff82141561397d5761397c61336a565b5b600182019050919050565b7f4e487b7100000000000000000000000000000000000000000000000000000000600052601260045260246000fd5b60006139c282612bc8565b91506139cd83612bc8565b9250826139dd576139dc613988565b5b828204905092915050565b60006139f382612bc8565b91506139fe83612bc8565b925082613a0e57613a0d613988565b5b828206905092915050565b7f4e487b7100000000000000000000000000000000000000000000000000000000600052603260045260246000fd5b7f45524337323155524953746f726167653a2055524920736574206f66206e6f6e60008201527f6578697374656e7420746f6b656e000000000000000000000000000000000000602082015250565b6000613aa4602e83612b18565b9150613aaf82613a48565b604082019050919050565b60006020820190508181036000830152613ad381613a97565b9050919050565b7f4552433732313a20617070726f766520746f2063616c6c657200000000000000600082015250565b6000613b10601983612b18565b9150613b1b82613ada565b602082019050919050565b60006020820190508181036000830152613b3f81613b03565b9050919050565b7f4552433732313a207472616e7366657220746f206e6f6e20455243373231526560008201527f63656976657220696d706c656d656e7465720000000000000000000000000000602082015250565b6000613ba2603283612b18565b9150613bad82613b46565b604082019050919050565b60006020820190508181036000830152613bd181613b95565b9050919050565b600081905092915050565b6000613bee82612b0d565b613bf88185613bd8565b9350613c08818560208601612b29565b80840191505092915050565b6000613c208285613be3565b9150613c2c8284613be3565b91508190509392505050565b7f43616e6e6f74207472616e7366657220736f756c626f756e6420746f6b656e73600082015250565b6000613c6e602083612b18565b9150613c7982613c38565b602082019050919050565b60006020820190508181036000830152613c9d81613c61565b9050919050565b600081519050919050565b600082825260208201905092915050565b6000613ccb82613ca4565b613cd58185613caf565b9350613ce5818560208601612b29565b613cee81612b5c565b840191505092915050565b6000608082019050613d0e6000830187612c5d565b613d1b6020830186612c5d565b613d286040830185612d73565b8181036060830152613d3a8184613cc0565b905095945050505050565b600081519050613d5481612a7e565b92915050565b600060208284031215613d7057613d6f612a48565b5b6000613d7e84828501613d45565b91505092915050565b7f4552433732313a206d696e7420746f20746865207a65726f2061646472657373600082015250565b6000613dbd602083612b18565b9150613dc882613d87565b602082019050919050565b60006020820190508181036000830152613dec81613db0565b9050919050565b7f4552433732313a20746f6b656e20616c7265616479206d696e74656400000000600082015250565b6000613e29601c83612b18565b9150613e3482613df3565b602082019050919050565b60006020820190508181036000830152613e5881613e1c565b905091905056fea2646970667358221220e9b8530fc248daa3a6f2caf45365737f8b497e66ee4a4a42715fa71e8621914764736f6c63430008090033",
  "linkReferences": {},
  "deployedLinkReferences": {}
}