{
  "_format": "hh-sol-artifact-1",
  "contractName": "WarrentyNFT",
  "sourceName": "contracts/WarrentyNFT.sol",
  "abi": [
    {
      "inputs": [],
      "stateMutability": "nonpayable",
      "type": "constructor"
    },
    {
      "anonymous": false,
      "inputs": [
        {
          "indexed": true,
          "internalType": "address",
          "name": "owner",
          "type": "address"
        },
        {
          "indexed": true,
          "internalType": "address",
          "name": "approved",
          "type": "address"
        },
        {
          "indexed": true,
          "internalType": "uint256",
          "name": "tokenId",
          "type": "uint256"
        }
      ],
      "name": "Approval",
      "type": "event"
    },
    {
      "anonymous": false,
      "inputs": [
        {
          "indexed": true,
          "internalType": "address",
          "name": "owner",
          "type": "address"
        },
        {
          "indexed": true,
          "internalType": "address",
          "name": "operator",
          "type": "address"
        },
        {
          "indexed": false,
          "internalType": "bool",
          "name": "approved",
          "type": "bool"
        }
      ],
      "name": "ApprovalForAll",
      "type": "event"
    },
    {
      "anonymous": false,
      "inputs": [
        {
          "indexed": true,
          "internalType": "address",
          "name": "previousOwner",
          "type": "address"
        },
        {
          "indexed": true,
          "internalType": "address",
          "name": "newOwner",
          "type": "address"
        }
      ],
      "name": "OwnershipTransferred",
      "type": "event"
    },
    {
      "anonymous": false,
      "inputs": [
        {
          "indexed": true,
          "internalType": "uint256",
          "name": "tokenID",
          "type": "uint256"
        }
      ],
      "name": "Repair",
      "type": "event"
    },
    {
      "anonymous": false,
      "inputs": [
        {
          "indexed": true,
          "internalType": "uint256",
          "name": "tokenID",
          "type": "uint256"
        },
        {
          "indexed": true,
          "internalType": "uint256",
          "name": "newTokenID",
          "type": "uint256"
        }
      ],
      "name": "Replace",
      "type": "event"
    },
    {
      "anonymous": false,
      "inputs": [
        {
          "indexed": true,
          "internalType": "address",
          "name": "from",
          "type": "address"
        },
        {
          "indexed": true,
          "internalType": "address",
          "name": "to",
          "type": "address"
        },
        {
          "indexed": true,
          "internalType": "uint256",
          "name": "tokenId",
          "type": "uint256"
        }
      ],
      "name": "Transfer",
      "type": "event"
    },
    {
      "inputs": [
        {
          "internalType": "address",
          "name": "_admin",
          "type": "address"
        }
      ],
      "name": "addAdmin",
      "outputs": [],
      "stateMutability": "nonpayable",
      "type": "function"
    },
    {
      "inputs": [
        {
          "internalType": "uint256",
          "name": "productID",
          "type": "uint256"
        },
        {
          "internalType": "uint256",
          "name": "_warrentyPeriod",
          "type": "uint256"
        },
        {
          "internalType": "bool",
          "name": "_isSoulbound",
          "type": "bool"
        }
      ],
      "name": "addProduct",
      "outputs": [],
      "stateMutability": "nonpayable",
      "type": "function"
    },
    {
      "inputs": [
        {
          "internalType": "address",
          "name": "_seller",
          "type": "address"
        }
      ],
      "name": "addSeller",
      "outputs": [],
      "stateMutability": "nonpayable",
      "type": "function"
    },
    {
      "inputs": [
        {
          "internalType": "address",
          "name": "to",
          "type": "address"
        },
        {
          "internalType": "uint256",
          "name": "tokenId",
          "type": "uint256"
        }
      ],
      "name": "approve",
      "outputs": [],
      "stateMutability": "nonpayable",
      "type": "function"
    },
    {
      "inputs": [
        {
          "internalType": "address",
          "name": "owner",
          "type": "address"
        }
      ],
      "name": "balanceOf",
      "outputs": [
        {
          "internalType": "uint256",
          "name": "",
          "type": "uint256"
        }
      ],
      "stateMutability": "view",
      "type": "function"
    },
    {
      "inputs": [
        {
          "internalType": "uint256",
          "name": "tokenId",
          "type": "uint256"
        }
      ],
      "name": "burn",
      "outputs": [],
      "stateMutability": "nonpayable",
      "type": "function"
    },
    {
      "inputs": [
        {
          "internalType": "uint256",
          "name": "tokenId",
          "type": "uint256"
        }
      ],
      "name": "getApproved",
      "outputs": [
        {
          "internalType": "address",
          "name": "",
          "type": "address"
        }
      ],
      "stateMutability": "view",
      "type": "function"
    },
    {
      "inputs": [
        {
          "internalType": "address",
          "name": "",
          "type": "address"
        }
      ],
      "name": "isAdmin",
      "outputs": [
        {
          "internalType": "bool",
          "name": "",
          "type": "bool"
        }
      ],
      "stateMutability": "view",
      "type": "function"
    },
    {
      "inputs": [
        {
          "internalType": "address",
          "name": "owner",
          "type": "address"
        },
        {
          "internalType": "address",
          "name": "operator",
          "type": "address"
        }
      ],
      "name": "isApprovedForAll",
      "outputs": [
        {
          "internalType": "bool",
          "name": "",
          "type": "bool"
        }
      ],
      "stateMutability": "view",
      "type": "function"
    },
    {
      "inputs": [
        {
          "internalType": "uint256",
          "name": "tokenID",
          "type": "uint256"
        }
      ],
      "name": "isOwner",
      "outputs": [
        {
          "internalType": "bool",
          "name": "",
          "type": "bool"
        }
      ],
      "stateMutability": "view",
      "type": "function"
    },
    {
      "inputs": [
        {
          "internalType": "address",
          "name": "",
          "type": "address"
        }
      ],
      "name": "isSeller",
      "outputs": [
        {
          "internalType": "bool",
          "name": "",
          "type": "bool"
        }
      ],
      "stateMutability": "view",
      "type": "function"
    },
    {
      "inputs": [
        {
          "internalType": "uint256",
          "name": "",
          "type": "uint256"
        }
      ],
      "name": "issueTime",
      "outputs": [
        {
          "internalType": "uint256",
          "name": "",
          "type": "uint256"
        }
      ],
      "stateMutability": "view",
      "type": "function"
    },
    {
      "inputs": [
        {
          "internalType": "address",
          "name": "buyer",
          "type": "address"
        },
        {
          "internalType": "uint256",
          "name": "productID",
          "type": "uint256"
        },
        {
          "internalType": "uint256",
          "name": "tokenID",
          "type": "uint256"
        }
      ],
      "name": "mintWarrentyNFT",
      "outputs": [],
      "stateMutability": "nonpayable",
      "type": "function"
    },
    {
      "inputs": [],
      "name": "name",
      "outputs": [
        {
          "internalType": "string",
          "name": "",
          "type": "string"
        }
      ],
      "stateMutability": "view",
      "type": "function"
    },
    {
      "inputs": [],
      "name": "owner",
      "outputs": [
        {
          "internalType": "address",
          "name": "",
          "type": "address"
        }
      ],
      "stateMutability": "view",
      "type": "function"
    },
    {
      "inputs": [
        {
          "internalType": "uint256",
          "name": "tokenId",
          "type": "uint256"
        }
      ],
      "name": "ownerOf",
      "outputs": [
        {
          "internalType": "address",
          "name": "",
          "type": "address"
        }
      ],
      "stateMutability": "view",
      "type": "function"
    },
    {
      "inputs": [
        {
          "internalType": "uint256",
          "name": "",
          "type": "uint256"
        }
      ],
      "name": "productTransferable",
      "outputs": [
        {
          "internalType": "bool",
          "name": "",
          "type": "bool"
        }
      ],
      "stateMutability": "view",
      "type": "function"
    },
    {
      "inputs": [
        {
          "internalType": "uint256",
          "name": "",
          "type": "uint256"
        }
      ],
      "name": "productWarrentyPeriod",
      "outputs": [
        {
          "internalType": "uint256",
          "name": "",
          "type": "uint256"
        }
      ],
      "stateMutability": "view",
      "type": "function"
    },
    {
      "inputs": [
        {
          "internalType": "address",
          "name": "_admin",
          "type": "address"
        }
      ],
      "name": "removeAdmin",
      "outputs": [],
      "stateMutability": "nonpayable",
      "type": "function"
    },
    {
      "inputs": [
        {
          "internalType": "address",
          "name": "_seller",
          "type": "address"
        }
      ],
      "name": "removeSeller",
      "outputs": [],
      "stateMutability": "nonpayable",
      "type": "function"
    },
    {
      "inputs": [],
      "name": "renounceOwnership",
      "outputs": [],
      "stateMutability": "nonpayable",
      "type": "function"
    },
    {
      "inputs": [
        {
          "internalType": "uint256",
          "name": "tokenID",
          "type": "uint256"
        }
      ],
      "name": "repairProduct",
      "outputs": [],
      "stateMutability": "nonpayable",
      "type": "function"
    },
    {
      "inputs": [
        {
          "internalType": "uint256",
          "name": "tokenID",
          "type": "uint256"
        },
        {
          "internalType": "uint256",
          "name": "newTokenID",
          "type": "uint256"
        }
      ],
      "name": "replaceProduct",
      "outputs": [],
      "stateMutability": "nonpayable",
      "type": "function"
    },
    {
      "inputs": [
        {
          "internalType": "address",
          "name": "from",
          "type": "address"
        },
        {
          "internalType": "address",
          "name": "to",
          "type": "address"
        },
        {
          "internalType": "uint256",
          "name": "tokenId",
          "type": "uint256"
        }
      ],
      "name": "safeTransferFrom",
      "outputs": [],
      "stateMutability": "nonpayable",
      "type": "function"
    },
    {
      "inputs": [
        {
          "internalType": "address",
          "name": "from",
          "type": "address"
        },
        {
          "internalType": "address",
          "name": "to",
          "type": "address"
        },
        {
          "internalType": "uint256",
          "name": "tokenId",
          "type": "uint256"
        },
        {
          "internalType": "bytes",
          "name": "data",
          "type": "bytes"
        }
      ],
      "name": "safeTransferFrom",
      "outputs": [],
      "stateMutability": "nonpayable",
      "type": "function"
    },
    {
      "inputs": [
        {
          "internalType": "uint256",
          "name": "",
          "type": "uint256"
        }
      ],
      "name": "sellerOf",
      "outputs": [
        {
          "internalType": "address",
          "name": "",
          "type": "address"
        }
      ],
      "stateMutability": "view",
      "type": "function"
    },
    {
      "inputs": [
        {
          "internalType": "address",
          "name": "operator",
          "type": "address"
        },
        {
          "internalType": "bool",
          "name": "approved",
          "type": "bool"
        }
      ],
      "name": "setApprovalForAll",
      "outputs": [],
      "stateMutability": "nonpayable",
      "type": "function"
    },
    {
      "inputs": [
        {
          "internalType": "bytes4",
          "name": "interfaceId",
          "type": "bytes4"
        }
      ],
      "name": "supportsInterface",
      "outputs": [
        {
          "internalType": "bool",
          "name": "",
          "type": "bool"
        }
      ],
      "stateMutability": "view",
      "type": "function"
    },
    {
      "inputs": [],
      "name": "symbol",
      "outputs": [
        {
          "internalType": "string",
          "name": "",
          "type": "string"
        }
      ],
      "stateMutability": "view",
      "type": "function"
    },
    {
      "inputs": [
        {
          "internalType": "uint256",
          "name": "tokenId",
          "type": "uint256"
        }
      ],
      "name": "tokenURI",
      "outputs": [
        {
          "internalType": "string",
          "name": "",
          "type": "string"
        }
      ],
      "stateMutability": "view",
      "type": "function"
    },
    {
      "inputs": [
        {
          "internalType": "address",
          "name": "from",
          "type": "address"
        },
        {
          "internalType": "address",
          "name": "to",
          "type": "address"
        },
        {
          "internalType": "uint256",
          "name": "tokenId",
          "type": "uint256"
        }
      ],
      "name": "transferFrom",
      "outputs": [],
      "stateMutability": "nonpayable",
      "type": "function"
    },
    {
      "inputs": [
        {
          "internalType": "address",
          "name": "newOwner",
          "type": "address"
        }
      ],
      "name": "transferOwnership",
      "outputs": [],
      "stateMutability": "nonpayable",
      "type": "function"
    },
    {
      "inputs": [
        {
          "internalType": "uint256",
          "name": "",
          "type": "uint256"
        }
      ],
      "name": "transferable",
      "outputs": [
        {
          "internalType": "bool",
          "name": "",
          "type": "bool"
        }
      ],
      "stateMutability": "view",
      "type": "function"
    },
    {
      "inputs": [
        {
          "internalType": "uint256",
          "name": "",
          "type": "uint256"
        }
      ],
      "name": "warrentyPeriod",
      "outputs": [
        {
          "internalType": "uint256",
          "name": "",
          "type": "uint256"
        }
      ],
      "stateMutability": "view",
      "type": "function"
    }
  ],
  "bytecode": "0x60806040523480156200001157600080fd5b506040518060400160405280600881526020017f57617272656e74790000000000000000000000000000000000000000000000008152506040518060400160405280600181526020017f570000000000000000000000000000000000000000000000000000000000000081525081600090805190602001906200009692919062000261565b508060019080519060200190620000af92919062000261565b505050620000d2620000c66200019360201b60201c565b6200019b60201b60201c565b33600860006101000a81548173ffffffffffffffffffffffffffffffffffffffff021916908373ffffffffffffffffffffffffffffffffffffffff160217905550600160096000600860009054906101000a900473ffffffffffffffffffffffffffffffffffffffff1673ffffffffffffffffffffffffffffffffffffffff1673ffffffffffffffffffffffffffffffffffffffff16815260200190815260200160002060006101000a81548160ff02191690831515021790555062000376565b600033905090565b6000600760009054906101000a900473ffffffffffffffffffffffffffffffffffffffff16905081600760006101000a81548173ffffffffffffffffffffffffffffffffffffffff021916908373ffffffffffffffffffffffffffffffffffffffff1602179055508173ffffffffffffffffffffffffffffffffffffffff168173ffffffffffffffffffffffffffffffffffffffff167f8be0079c531659141344cd1fd0a4f28419497f9722a3daafe3b4186f6b6457e060405160405180910390a35050565b8280546200026f9062000340565b90600052602060002090601f016020900481019282620002935760008555620002df565b82601f10620002ae57805160ff1916838001178555620002df565b82800160010185558215620002df579182015b82811115620002de578251825591602001919060010190620002c1565b5b509050620002ee9190620002f2565b5090565b5b808211156200030d576000816000905550600101620002f3565b5090565b7f4e487b7100000000000000000000000000000000000000000000000000000000600052602260045260246000fd5b600060028204905060018216806200035957607f821691505b6020821081141562000370576200036f62000311565b5b50919050565b61414d80620003866000396000f3fe608060405234801561001057600080fd5b50600436106102055760003560e01c80637cb9cf541161011a578063d93fabfa116100ad578063f2fde38b1161007c578063f2fde38b1461062e578063f4c3b4d71461064a578063f78ee9fb1461067a578063fa173670146106aa578063fc45e66c146106c657610205565b8063d93fabfa14610582578063e05c5a831461059e578063e985e9c5146105ce578063ee95feaf146105fe57610205565b806395d89b41116100e957806395d89b41146104fc578063a22cb4651461051a578063b88d4fde14610536578063c87b56dd1461055257610205565b80637cb9cf5414610476578063803a93da146104925780638c00cc96146104ae5780638da5cb5b146104de57610205565b806324d7806c1161019d5780636352211e1161016c5780636352211e146103c057806370480275146103f057806370a082311461040c578063715018a61461043c5780637997df6f1461044657610205565b806324d7806c1461032857806339c7639c1461035857806342842e0e1461038857806342966c68146103a457610205565b8063095ea7b3116101d9578063095ea7b3146102b8578063109b3d1f146102d45780631785f53c146102f057806323b872dd1461030c57610205565b806269bd911461020a57806301ffc9a71461023a57806306fdde031461026a578063081812fc14610288575b600080fd5b610224600480360381019061021f9190612d40565b6106e2565b6040516102319190612d7c565b60405180910390f35b610254600480360381019061024f9190612def565b6106fa565b6040516102619190612e37565b60405180910390f35b6102726107dc565b60405161027f9190612eeb565b60405180910390f35b6102a2600480360381019061029d9190612d40565b61086e565b6040516102af9190612f4e565b60405180910390f35b6102d260048036038101906102cd9190612f95565b6108b4565b005b6102ee60048036038101906102e99190612d40565b6109cc565b005b61030a60048036038101906103059190612fd5565b610c1a565b005b61032660048036038101906103219190613002565b610d01565b005b610342600480360381019061033d9190612fd5565b610d61565b60405161034f9190612e37565b60405180910390f35b610372600480360381019061036d9190612d40565b610d81565b60405161037f9190612e37565b60405180910390f35b6103a2600480360381019061039d9190613002565b610dd2565b005b6103be60048036038101906103b99190612d40565b610df2565b005b6103da60048036038101906103d59190612d40565b610e4e565b6040516103e79190612f4e565b60405180910390f35b61040a60048036038101906104059190612fd5565b610f00565b005b61042660048036038101906104219190612fd5565b610fe7565b6040516104339190612d7c565b60405180910390f35b61044461109f565b005b610460600480360381019061045b9190612d40565b6110b3565b60405161046d9190612e37565b60405180910390f35b610490600480360381019061048b9190612fd5565b6110d3565b005b6104ac60048036038101906104a79190613055565b6111ba565b005b6104c860048036038101906104c39190612d40565b6112fc565b6040516104d59190612d7c565b60405180910390f35b6104e6611314565b6040516104f39190612f4e565b60405180910390f35b61050461133e565b6040516105119190612eeb565b60405180910390f35b610534600480360381019061052f91906130d4565b6113d0565b005b610550600480360381019061054b9190613249565b6113e6565b005b61056c60048036038101906105679190612d40565b611448565b6040516105799190612eeb565b60405180910390f35b61059c60048036038101906105979190612fd5565b61145a565b005b6105b860048036038101906105b39190612d40565b611541565b6040516105c59190612f4e565b60405180910390f35b6105e860048036038101906105e391906132cc565b611574565b6040516105f59190612e37565b60405180910390f35b61061860048036038101906106139190612fd5565b611608565b6040516106259190612e37565b60405180910390f35b61064860048036038101906106439190612fd5565b611628565b005b610664600480360381019061065f9190612d40565b6116ac565b6040516106719190612e37565b60405180910390f35b610694600480360381019061068f9190612d40565b6116cc565b6040516106a19190612d7c565b60405180910390f35b6106c460048036038101906106bf919061330c565b6116e4565b005b6106e060048036038101906106db919061334c565b61195f565b005b60106020528060005260406000206000915090505481565b60007f80ac58cd000000000000000000000000000000000000000000000000000000007bffffffffffffffffffffffffffffffffffffffffffffffffffffffff1916827bffffffffffffffffffffffffffffffffffffffffffffffffffffffff191614806107c557507f5b5e139f000000000000000000000000000000000000000000000000000000007bffffffffffffffffffffffffffffffffffffffffffffffffffffffff1916827bffffffffffffffffffffffffffffffffffffffffffffffffffffffff1916145b806107d557506107d482611a34565b5b9050919050565b6060600080546107eb906133ce565b80601f0160208091040260200160405190810160405280929190818152602001828054610817906133ce565b80156108645780601f1061083957610100808354040283529160200191610864565b820191906000526020600020905b81548152906001019060200180831161084757829003601f168201915b5050505050905090565b600061087982611a9e565b6004600083815260200190815260200160002060009054906101000a900473ffffffffffffffffffffffffffffffffffffffff169050919050565b60006108bf82610e4e565b90508073ffffffffffffffffffffffffffffffffffffffff168373ffffffffffffffffffffffffffffffffffffffff161415610930576040517f08c379a000000000000000000000000000000000000000000000000000000000815260040161092790613472565b60405180910390fd5b8073ffffffffffffffffffffffffffffffffffffffff1661094f611ae9565b73ffffffffffffffffffffffffffffffffffffffff16148061097e575061097d81610978611ae9565b611574565b5b6109bd576040517f08c379a00000000000000000000000000000000000000000000000000000000081526004016109b490613504565b60405180910390fd5b6109c78383611af1565b505050565b600a60003373ffffffffffffffffffffffffffffffffffffffff1673ffffffffffffffffffffffffffffffffffffffff16815260200190815260200160002060009054906101000a900460ff16610a58576040517f08c379a0000000000000000000000000000000000000000000000000000000008152600401610a4f90613570565b60405180910390fd5b80600073ffffffffffffffffffffffffffffffffffffffff16610a7a82610e4e565b73ffffffffffffffffffffffffffffffffffffffff161415610ad1576040517f08c379a0000000000000000000000000000000000000000000000000000000008152600401610ac890613602565b60405180910390fd5b81426010600083815260200190815260200160002054600e600084815260200190815260200160002054610b059190613651565b11610b45576040517f08c379a0000000000000000000000000000000000000000000000000000000008152600401610b3c90613719565b60405180910390fd5b823373ffffffffffffffffffffffffffffffffffffffff16600d600083815260200190815260200160002060009054906101000a900473ffffffffffffffffffffffffffffffffffffffff1673ffffffffffffffffffffffffffffffffffffffff1614610be7576040517f08c379a0000000000000000000000000000000000000000000000000000000008152600401610bde90613785565b60405180910390fd5b837f10ec01e7da8806f72699d63daf6c544662592f529db723a941af7aba0d2c3a2a60405160405180910390a250505050565b600960003373ffffffffffffffffffffffffffffffffffffffff1673ffffffffffffffffffffffffffffffffffffffff16815260200190815260200160002060009054906101000a900460ff16610ca6576040517f08c379a0000000000000000000000000000000000000000000000000000000008152600401610c9d906137f1565b60405180910390fd5b6000600960008373ffffffffffffffffffffffffffffffffffffffff1673ffffffffffffffffffffffffffffffffffffffff16815260200190815260200160002060006101000a81548160ff02191690831515021790555050565b610d12610d0c611ae9565b82611baa565b610d51576040517f08c379a0000000000000000000000000000000000000000000000000000000008152600401610d4890613883565b60405180910390fd5b610d5c838383611c3f565b505050565b60096020528060005260406000206000915054906101000a900460ff1681565b60003373ffffffffffffffffffffffffffffffffffffffff16610da383610e4e565b73ffffffffffffffffffffffffffffffffffffffff161415610dc85760019050610dcd565b600090505b919050565b610ded838383604051806020016040528060008152506113e6565b505050565b610e03610dfd611ae9565b82611baa565b610e42576040517f08c379a0000000000000000000000000000000000000000000000000000000008152600401610e3990613883565b60405180910390fd5b610e4b81611ea6565b50565b6000806002600084815260200190815260200160002060009054906101000a900473ffffffffffffffffffffffffffffffffffffffff169050600073ffffffffffffffffffffffffffffffffffffffff168173ffffffffffffffffffffffffffffffffffffffff161415610ef7576040517f08c379a0000000000000000000000000000000000000000000000000000000008152600401610eee906138ef565b60405180910390fd5b80915050919050565b600960003373ffffffffffffffffffffffffffffffffffffffff1673ffffffffffffffffffffffffffffffffffffffff16815260200190815260200160002060009054906101000a900460ff16610f8c576040517f08c379a0000000000000000000000000000000000000000000000000000000008152600401610f83906137f1565b60405180910390fd5b6001600960008373ffffffffffffffffffffffffffffffffffffffff1673ffffffffffffffffffffffffffffffffffffffff16815260200190815260200160002060006101000a81548160ff02191690831515021790555050565b60008073ffffffffffffffffffffffffffffffffffffffff168273ffffffffffffffffffffffffffffffffffffffff161415611058576040517f08c379a000000000000000000000000000000000000000000000000000000000815260040161104f90613981565b60405180910390fd5b600360008373ffffffffffffffffffffffffffffffffffffffff1673ffffffffffffffffffffffffffffffffffffffff168152602001908152602001600020549050919050565b6110a7611eb2565b6110b16000611f30565b565b600b6020528060005260406000206000915054906101000a900460ff1681565b600960003373ffffffffffffffffffffffffffffffffffffffff1673ffffffffffffffffffffffffffffffffffffffff16815260200190815260200160002060009054906101000a900460ff1661115f576040517f08c379a0000000000000000000000000000000000000000000000000000000008152600401611156906137f1565b60405180910390fd5b6000600a60008373ffffffffffffffffffffffffffffffffffffffff1673ffffffffffffffffffffffffffffffffffffffff16815260200190815260200160002060006101000a81548160ff02191690831515021790555050565b600a60003373ffffffffffffffffffffffffffffffffffffffff1673ffffffffffffffffffffffffffffffffffffffff16815260200190815260200160002060009054906101000a900460ff16611246576040517f08c379a000000000000000000000000000000000000000000000000000000000815260040161123d90613570565b60405180910390fd5b33600d600083815260200190815260200160002060006101000a81548173ffffffffffffffffffffffffffffffffffffffff021916908373ffffffffffffffffffffffffffffffffffffffff16021790555042600e600083815260200190815260200160002081905550600c60008381526020019081526020016000205460106000838152602001908152602001600020819055506112e58382611ff6565b6112f7816112f284612014565b612175565b505050565b600e6020528060005260406000206000915090505481565b6000600760009054906101000a900473ffffffffffffffffffffffffffffffffffffffff16905090565b60606001805461134d906133ce565b80601f0160208091040260200160405190810160405280929190818152602001828054611379906133ce565b80156113c65780601f1061139b576101008083540402835291602001916113c6565b820191906000526020600020905b8154815290600101906020018083116113a957829003601f168201915b5050505050905090565b6113e26113db611ae9565b83836121e9565b5050565b6113f76113f1611ae9565b83611baa565b611436576040517f08c379a000000000000000000000000000000000000000000000000000000000815260040161142d90613883565b60405180910390fd5b61144284848484612356565b50505050565b6060611453826123b2565b9050919050565b600960003373ffffffffffffffffffffffffffffffffffffffff1673ffffffffffffffffffffffffffffffffffffffff16815260200190815260200160002060009054906101000a900460ff166114e6576040517f08c379a00000000000000000000000000000000000000000000000000000000081526004016114dd906137f1565b60405180910390fd5b6001600a60008373ffffffffffffffffffffffffffffffffffffffff1673ffffffffffffffffffffffffffffffffffffffff16815260200190815260200160002060006101000a81548160ff02191690831515021790555050565b600d6020528060005260406000206000915054906101000a900473ffffffffffffffffffffffffffffffffffffffff1681565b6000600560008473ffffffffffffffffffffffffffffffffffffffff1673ffffffffffffffffffffffffffffffffffffffff16815260200190815260200160002060008373ffffffffffffffffffffffffffffffffffffffff1673ffffffffffffffffffffffffffffffffffffffff16815260200190815260200160002060009054906101000a900460ff16905092915050565b600a6020528060005260406000206000915054906101000a900460ff1681565b611630611eb2565b600073ffffffffffffffffffffffffffffffffffffffff168173ffffffffffffffffffffffffffffffffffffffff1614156116a0576040517f08c379a000000000000000000000000000000000000000000000000000000000815260040161169790613a13565b60405180910390fd5b6116a981611f30565b50565b600f6020528060005260406000206000915054906101000a900460ff1681565b600c6020528060005260406000206000915090505481565b600a60003373ffffffffffffffffffffffffffffffffffffffff1673ffffffffffffffffffffffffffffffffffffffff16815260200190815260200160002060009054906101000a900460ff16611770576040517f08c379a000000000000000000000000000000000000000000000000000000000815260040161176790613570565b60405180910390fd5b81600073ffffffffffffffffffffffffffffffffffffffff1661179282610e4e565b73ffffffffffffffffffffffffffffffffffffffff1614156117e9576040517f08c379a00000000000000000000000000000000000000000000000000000000081526004016117e090613602565b60405180910390fd5b82426010600083815260200190815260200160002054600e60008481526020019081526020016000205461181d9190613651565b1161185d576040517f08c379a000000000000000000000000000000000000000000000000000000000815260040161185490613719565b60405180910390fd5b833373ffffffffffffffffffffffffffffffffffffffff16600d600083815260200190815260200160002060009054906101000a900473ffffffffffffffffffffffffffffffffffffffff1673ffffffffffffffffffffffffffffffffffffffff16146118ff576040517f08c379a00000000000000000000000000000000000000000000000000000000081526004016118f690613785565b60405180910390fd5b600e600086815260200190815260200160002054600e60008681526020019081526020016000208190555083857f834caf0d657e1c8ce84ea94dbc4257c78fb77ad2bcd43a096c37bb539928454260405160405180910390a35050505050565b600a60003373ffffffffffffffffffffffffffffffffffffffff1673ffffffffffffffffffffffffffffffffffffffff16815260200190815260200160002060009054906101000a900460ff166119eb576040517f08c379a00000000000000000000000000000000000000000000000000000000081526004016119e290613570565b60405180910390fd5b81600c6000858152602001908152602001600020819055508015600b600085815260200190815260200160002060006101000a81548160ff021916908315150217905550505050565b60007f01ffc9a7000000000000000000000000000000000000000000000000000000007bffffffffffffffffffffffffffffffffffffffffffffffffffffffff1916827bffffffffffffffffffffffffffffffffffffffffffffffffffffffff1916149050919050565b611aa7816124c5565b611ae6576040517f08c379a0000000000000000000000000000000000000000000000000000000008152600401611add906138ef565b60405180910390fd5b50565b600033905090565b816004600083815260200190815260200160002060006101000a81548173ffffffffffffffffffffffffffffffffffffffff021916908373ffffffffffffffffffffffffffffffffffffffff160217905550808273ffffffffffffffffffffffffffffffffffffffff16611b6483610e4e565b73ffffffffffffffffffffffffffffffffffffffff167f8c5be1e5ebec7d5bd14f71427d1e84f3dd0314c0f7b2291e5b200ac8c7c3b92560405160405180910390a45050565b600080611bb683610e4e565b90508073ffffffffffffffffffffffffffffffffffffffff168473ffffffffffffffffffffffffffffffffffffffff161480611bf85750611bf78185611574565b5b80611c3657508373ffffffffffffffffffffffffffffffffffffffff16611c1e8461086e565b73ffffffffffffffffffffffffffffffffffffffff16145b91505092915050565b8273ffffffffffffffffffffffffffffffffffffffff16611c5f82610e4e565b73ffffffffffffffffffffffffffffffffffffffff1614611cb5576040517f08c379a0000000000000000000000000000000000000000000000000000000008152600401611cac90613aa5565b60405180910390fd5b600073ffffffffffffffffffffffffffffffffffffffff168273ffffffffffffffffffffffffffffffffffffffff161415611d25576040517f08c379a0000000000000000000000000000000000000000000000000000000008152600401611d1c90613b37565b60405180910390fd5b611d30838383612531565b611d3b600082611af1565b6001600360008573ffffffffffffffffffffffffffffffffffffffff1673ffffffffffffffffffffffffffffffffffffffff1681526020019081526020016000206000828254611d8b9190613b57565b925050819055506001600360008473ffffffffffffffffffffffffffffffffffffffff1673ffffffffffffffffffffffffffffffffffffffff1681526020019081526020016000206000828254611de29190613651565b92505081905550816002600083815260200190815260200160002060006101000a81548173ffffffffffffffffffffffffffffffffffffffff021916908373ffffffffffffffffffffffffffffffffffffffff160217905550808273ffffffffffffffffffffffffffffffffffffffff168473ffffffffffffffffffffffffffffffffffffffff167fddf252ad1be2c89b69c2b068fc378daa952ba7f163c4a11628f55a4df523b3ef60405160405180910390a4611ea183838361260a565b505050565b611eaf8161260f565b50565b611eba611ae9565b73ffffffffffffffffffffffffffffffffffffffff16611ed8611314565b73ffffffffffffffffffffffffffffffffffffffff1614611f2e576040517f08c379a0000000000000000000000000000000000000000000000000000000008152600401611f2590613bd7565b60405180910390fd5b565b6000600760009054906101000a900473ffffffffffffffffffffffffffffffffffffffff16905081600760006101000a81548173ffffffffffffffffffffffffffffffffffffffff021916908373ffffffffffffffffffffffffffffffffffffffff1602179055508173ffffffffffffffffffffffffffffffffffffffff168173ffffffffffffffffffffffffffffffffffffffff167f8be0079c531659141344cd1fd0a4f28419497f9722a3daafe3b4186f6b6457e060405160405180910390a35050565b612010828260405180602001604052806000815250612662565b5050565b6060600082141561205c576040518060400160405280600181526020017f30000000000000000000000000000000000000000000000000000000000000008152509050612170565b600082905060005b6000821461208e57808061207790613bf7565b915050600a826120879190613c6f565b9150612064565b60008167ffffffffffffffff8111156120aa576120a961311e565b5b6040519080825280601f01601f1916602001820160405280156120dc5781602001600182028036833780820191505090505b5090505b60008514612169576001826120f59190613b57565b9150600a856121049190613ca0565b60306121109190613651565b60f81b81838151811061212657612125613cd1565b5b60200101907effffffffffffffffffffffffffffffffffffffffffffffffffffffffffffff1916908160001a905350600a856121629190613c6f565b94506120e0565b8093505050505b919050565b61217e826124c5565b6121bd576040517f08c379a00000000000000000000000000000000000000000000000000000000081526004016121b490613d72565b60405180910390fd5b806006600084815260200190815260200160002090805190602001906121e4929190612c13565b505050565b8173ffffffffffffffffffffffffffffffffffffffff168373ffffffffffffffffffffffffffffffffffffffff161415612258576040517f08c379a000000000000000000000000000000000000000000000000000000000815260040161224f90613dde565b60405180910390fd5b80600560008573ffffffffffffffffffffffffffffffffffffffff1673ffffffffffffffffffffffffffffffffffffffff16815260200190815260200160002060008473ffffffffffffffffffffffffffffffffffffffff1673ffffffffffffffffffffffffffffffffffffffff16815260200190815260200160002060006101000a81548160ff0219169083151502179055508173ffffffffffffffffffffffffffffffffffffffff168373ffffffffffffffffffffffffffffffffffffffff167f17307eab39ab6107e8899845ad3d59bd9653f200f220920489ca2b5937696c31836040516123499190612e37565b60405180910390a3505050565b612361848484611c3f565b61236d848484846126bd565b6123ac576040517f08c379a00000000000000000000000000000000000000000000000000000000081526004016123a390613e70565b60405180910390fd5b50505050565b60606123bd82611a9e565b60006006600084815260200190815260200160002080546123dd906133ce565b80601f0160208091040260200160405190810160405280929190818152602001828054612409906133ce565b80156124565780601f1061242b57610100808354040283529160200191612456565b820191906000526020600020905b81548152906001019060200180831161243957829003601f168201915b505050505090506000612467612854565b905060008151141561247d5781925050506124c0565b6000825111156124b257808260405160200161249a929190613ecc565b604051602081830303815290604052925050506124c0565b6124bb84612891565b925050505b919050565b60008073ffffffffffffffffffffffffffffffffffffffff166002600084815260200190815260200160002060009054906101000a900473ffffffffffffffffffffffffffffffffffffffff1673ffffffffffffffffffffffffffffffffffffffff1614159050919050565b60001515600f600083815260200190815260200160002060009054906101000a900460ff161515141561260557600073ffffffffffffffffffffffffffffffffffffffff168373ffffffffffffffffffffffffffffffffffffffff1614806125c55750600073ffffffffffffffffffffffffffffffffffffffff168273ffffffffffffffffffffffffffffffffffffffff16145b612604576040517f08c379a00000000000000000000000000000000000000000000000000000000081526004016125fb90613f3c565b60405180910390fd5b5b505050565b505050565b612618816128f9565b6000600660008381526020019081526020016000208054612638906133ce565b90501461265f5760066000828152602001908152602001600020600061265e9190612c99565b5b50565b61266c8383612a16565b61267960008484846126bd565b6126b8576040517f08c379a00000000000000000000000000000000000000000000000000000000081526004016126af90613e70565b60405180910390fd5b505050565b60006126de8473ffffffffffffffffffffffffffffffffffffffff16612bf0565b15612847578373ffffffffffffffffffffffffffffffffffffffff1663150b7a02612707611ae9565b8786866040518563ffffffff1660e01b81526004016127299493929190613fb1565b602060405180830381600087803b15801561274357600080fd5b505af192505050801561277457506040513d601f19601f820116820180604052508101906127719190614012565b60015b6127f7573d80600081146127a4576040519150601f19603f3d011682016040523d82523d6000602084013e6127a9565b606091505b506000815114156127ef576040517f08c379a00000000000000000000000000000000000000000000000000000000081526004016127e690613e70565b60405180910390fd5b805181602001fd5b63150b7a0260e01b7bffffffffffffffffffffffffffffffffffffffffffffffffffffffff1916817bffffffffffffffffffffffffffffffffffffffffffffffffffffffff19161491505061284c565b600190505b949350505050565b60606040518060400160405280600881526020017f68747470733a2f2f000000000000000000000000000000000000000000000000815250905090565b606061289c82611a9e565b60006128a6612854565b905060008151116128c657604051806020016040528060008152506128f1565b806128d084612014565b6040516020016128e1929190613ecc565b6040516020818303038152906040525b915050919050565b600061290482610e4e565b905061291281600084612531565b61291d600083611af1565b6001600360008373ffffffffffffffffffffffffffffffffffffffff1673ffffffffffffffffffffffffffffffffffffffff168152602001908152602001600020600082825461296d9190613b57565b925050819055506002600083815260200190815260200160002060006101000a81549073ffffffffffffffffffffffffffffffffffffffff021916905581600073ffffffffffffffffffffffffffffffffffffffff168273ffffffffffffffffffffffffffffffffffffffff167fddf252ad1be2c89b69c2b068fc378daa952ba7f163c4a11628f55a4df523b3ef60405160405180910390a4612a128160008461260a565b5050565b600073ffffffffffffffffffffffffffffffffffffffff168273ffffffffffffffffffffffffffffffffffffffff161415612a86576040517f08c379a0000000000000000000000000000000000000000000000000000000008152600401612a7d9061408b565b60405180910390fd5b612a8f816124c5565b15612acf576040517f08c379a0000000000000000000000000000000000000000000000000000000008152600401612ac6906140f7565b60405180910390fd5b612adb60008383612531565b6001600360008473ffffffffffffffffffffffffffffffffffffffff1673ffffffffffffffffffffffffffffffffffffffff1681526020019081526020016000206000828254612b2b9190613651565b92505081905550816002600083815260200190815260200160002060006101000a81548173ffffffffffffffffffffffffffffffffffffffff021916908373ffffffffffffffffffffffffffffffffffffffff160217905550808273ffffffffffffffffffffffffffffffffffffffff16600073ffffffffffffffffffffffffffffffffffffffff167fddf252ad1be2c89b69c2b068fc378daa952ba7f163c4a11628f55a4df523b3ef60405160405180910390a4612bec6000838361260a565b5050565b6000808273ffffffffffffffffffffffffffffffffffffffff163b119050919050565b828054612c1f906133ce565b90600052602060002090601f016020900481019282612c415760008555612c88565b82601f10612c5a57805160ff1916838001178555612c88565b82800160010185558215612c88579182015b82811115612c87578251825591602001919060010190612c6c565b5b509050612c959190612cd9565b5090565b508054612ca5906133ce565b6000825580601f10612cb75750612cd6565b601f016020900490600052602060002090810190612cd59190612cd9565b5b50565b5b80821115612cf2576000816000905550600101612cda565b5090565b6000604051905090565b600080fd5b600080fd5b6000819050919050565b612d1d81612d0a565b8114612d2857600080fd5b50565b600081359050612d3a81612d14565b92915050565b600060208284031215612d5657612d55612d00565b5b6000612d6484828501612d2b565b91505092915050565b612d7681612d0a565b82525050565b6000602082019050612d916000830184612d6d565b92915050565b60007fffffffff0000000000000000000000000000000000000000000000000000000082169050919050565b612dcc81612d97565b8114612dd757600080fd5b50565b600081359050612de981612dc3565b92915050565b600060208284031215612e0557612e04612d00565b5b6000612e1384828501612dda565b91505092915050565b60008115159050919050565b612e3181612e1c565b82525050565b6000602082019050612e4c6000830184612e28565b92915050565b600081519050919050565b600082825260208201905092915050565b60005b83811015612e8c578082015181840152602081019050612e71565b83811115612e9b576000848401525b50505050565b6000601f19601f8301169050919050565b6000612ebd82612e52565b612ec78185612e5d565b9350612ed7818560208601612e6e565b612ee081612ea1565b840191505092915050565b60006020820190508181036000830152612f058184612eb2565b905092915050565b600073ffffffffffffffffffffffffffffffffffffffff82169050919050565b6000612f3882612f0d565b9050919050565b612f4881612f2d565b82525050565b6000602082019050612f636000830184612f3f565b92915050565b612f7281612f2d565b8114612f7d57600080fd5b50565b600081359050612f8f81612f69565b92915050565b60008060408385031215612fac57612fab612d00565b5b6000612fba85828601612f80565b9250506020612fcb85828601612d2b565b9150509250929050565b600060208284031215612feb57612fea612d00565b5b6000612ff984828501612f80565b91505092915050565b60008060006060848603121561301b5761301a612d00565b5b600061302986828701612f80565b935050602061303a86828701612f80565b925050604061304b86828701612d2b565b9150509250925092565b60008060006060848603121561306e5761306d612d00565b5b600061307c86828701612f80565b935050602061308d86828701612d2b565b925050604061309e86828701612d2b565b9150509250925092565b6130b181612e1c565b81146130bc57600080fd5b50565b6000813590506130ce816130a8565b92915050565b600080604083850312156130eb576130ea612d00565b5b60006130f985828601612f80565b925050602061310a858286016130bf565b9150509250929050565b600080fd5b600080fd5b7f4e487b7100000000000000000000000000000000000000000000000000000000600052604160045260246000fd5b61315682612ea1565b810181811067ffffffffffffffff821117156131755761317461311e565b5b80604052505050565b6000613188612cf6565b9050613194828261314d565b919050565b600067ffffffffffffffff8211156131b4576131b361311e565b5b6131bd82612ea1565b9050602081019050919050565b82818337600083830152505050565b60006131ec6131e784613199565b61317e565b90508281526020810184848401111561320857613207613119565b5b6132138482856131ca565b509392505050565b600082601f8301126132305761322f613114565b5b81356132408482602086016131d9565b91505092915050565b6000806000806080858703121561326357613262612d00565b5b600061327187828801612f80565b945050602061328287828801612f80565b935050604061329387828801612d2b565b925050606085013567ffffffffffffffff8111156132b4576132b3612d05565b5b6132c08782880161321b565b91505092959194509250565b600080604083850312156132e3576132e2612d00565b5b60006132f185828601612f80565b925050602061330285828601612f80565b9150509250929050565b6000806040838503121561332357613322612d00565b5b600061333185828601612d2b565b925050602061334285828601612d2b565b9150509250929050565b60008060006060848603121561336557613364612d00565b5b600061337386828701612d2b565b935050602061338486828701612d2b565b9250506040613395868287016130bf565b9150509250925092565b7f4e487b7100000000000000000000000000000000000000000000000000000000600052602260045260246000fd5b600060028204905060018216806133e657607f821691505b602082108114156133fa576133f961339f565b5b50919050565b7f4552433732313a20617070726f76616c20746f2063757272656e74206f776e6560008201527f7200000000000000000000000000000000000000000000000000000000000000602082015250565b600061345c602183612e5d565b915061346782613400565b604082019050919050565b6000602082019050818103600083015261348b8161344f565b9050919050565b7f4552433732313a20617070726f76652063616c6c6572206973206e6f7420746f60008201527f6b656e206f776e6572206e6f7220617070726f76656420666f7220616c6c0000602082015250565b60006134ee603e83612e5d565b91506134f982613492565b604082019050919050565b6000602082019050818103600083015261351d816134e1565b9050919050565b7f53656c6c6572206f6e6c792066756e6374696f6e000000000000000000000000600082015250565b600061355a601483612e5d565b915061356582613524565b602082019050919050565b600060208201905081810360008301526135898161354d565b9050919050565b7f5468652070726f647563742065697468657220646f6573206e6f74206578697360008201527f74206f7220686173206e6f74206265656e20736f6c6420796574000000000000602082015250565b60006135ec603a83612e5d565b91506135f782613590565b604082019050919050565b6000602082019050818103600083015261361b816135df565b9050919050565b7f4e487b7100000000000000000000000000000000000000000000000000000000600052601160045260246000fd5b600061365c82612d0a565b915061366783612d0a565b9250827fffffffffffffffffffffffffffffffffffffffffffffffffffffffffffffffff0382111561369c5761369b613622565b5b828201905092915050565b7f5468652070726f64756374206973206e6f7420696e2077617272616e7479207060008201527f6572696f64000000000000000000000000000000000000000000000000000000602082015250565b6000613703602583612e5d565b915061370e826136a7565b604082019050919050565b60006020820190508181036000830152613732816136f6565b9050919050565b7f596f7520617265206e6f74207468652073656c6c657200000000000000000000600082015250565b600061376f601683612e5d565b915061377a82613739565b602082019050919050565b6000602082019050818103600083015261379e81613762565b9050919050565b7f41646d696e206f6e6c792066756e6374696f6e00000000000000000000000000600082015250565b60006137db601383612e5d565b91506137e6826137a5565b602082019050919050565b6000602082019050818103600083015261380a816137ce565b9050919050565b7f4552433732313a2063616c6c6572206973206e6f7420746f6b656e206f776e6560008201527f72206e6f7220617070726f766564000000000000000000000000000000000000602082015250565b600061386d602e83612e5d565b915061387882613811565b604082019050919050565b6000602082019050818103600083015261389c81613860565b9050919050565b7f4552433732313a20696e76616c696420746f6b656e2049440000000000000000600082015250565b60006138d9601883612e5d565b91506138e4826138a3565b602082019050919050565b60006020820190508181036000830152613908816138cc565b9050919050565b7f4552433732313a2061646472657373207a65726f206973206e6f74206120766160008201527f6c6964206f776e65720000000000000000000000000000000000000000000000602082015250565b600061396b602983612e5d565b91506139768261390f565b604082019050919050565b6000602082019050818103600083015261399a8161395e565b9050919050565b7f4f776e61626c653a206e6577206f776e657220697320746865207a65726f206160008201527f6464726573730000000000000000000000000000000000000000000000000000602082015250565b60006139fd602683612e5d565b9150613a08826139a1565b604082019050919050565b60006020820190508181036000830152613a2c816139f0565b9050919050565b7f4552433732313a207472616e736665722066726f6d20696e636f72726563742060008201527f6f776e6572000000000000000000000000000000000000000000000000000000602082015250565b6000613a8f602583612e5d565b9150613a9a82613a33565b604082019050919050565b60006020820190508181036000830152613abe81613a82565b9050919050565b7f4552433732313a207472616e7366657220746f20746865207a65726f2061646460008201527f7265737300000000000000000000000000000000000000000000000000000000602082015250565b6000613b21602483612e5d565b9150613b2c82613ac5565b604082019050919050565b60006020820190508181036000830152613b5081613b14565b9050919050565b6000613b6282612d0a565b9150613b6d83612d0a565b925082821015613b8057613b7f613622565b5b828203905092915050565b7f4f776e61626c653a2063616c6c6572206973206e6f7420746865206f776e6572600082015250565b6000613bc1602083612e5d565b9150613bcc82613b8b565b602082019050919050565b60006020820190508181036000830152613bf081613bb4565b9050919050565b6000613c0282612d0a565b91507fffffffffffffffffffffffffffffffffffffffffffffffffffffffffffffffff821415613c3557613c34613622565b5b600182019050919050565b7f4e487b7100000000000000000000000000000000000000000000000000000000600052601260045260246000fd5b6000613c7a82612d0a565b9150613c8583612d0a565b925082613c9557613c94613c40565b5b828204905092915050565b6000613cab82612d0a565b9150613cb683612d0a565b925082613cc657613cc5613c40565b5b828206905092915050565b7f4e487b7100000000000000000000000000000000000000000000000000000000600052603260045260246000fd5b7f45524337323155524953746f726167653a2055524920736574206f66206e6f6e60008201527f6578697374656e7420746f6b656e000000000000000000000000000000000000602082015250565b6000613d5c602e83612e5d565b9150613d6782613d00565b604082019050919050565b60006020820190508181036000830152613d8b81613d4f565b9050919050565b7f4552433732313a20617070726f766520746f2063616c6c657200000000000000600082015250565b6000613dc8601983612e5d565b9150613dd382613d92565b602082019050919050565b60006020820190508181036000830152613df781613dbb565b9050919050565b7f4552433732313a207472616e7366657220746f206e6f6e20455243373231526560008201527f63656976657220696d706c656d656e7465720000000000000000000000000000602082015250565b6000613e5a603283612e5d565b9150613e6582613dfe565b604082019050919050565b60006020820190508181036000830152613e8981613e4d565b9050919050565b600081905092915050565b6000613ea682612e52565b613eb08185613e90565b9350613ec0818560208601612e6e565b80840191505092915050565b6000613ed88285613e9b565b9150613ee48284613e9b565b91508190509392505050565b7f43616e6e6f74207472616e7366657220736f756c626f756e6420746f6b656e73600082015250565b6000613f26602083612e5d565b9150613f3182613ef0565b602082019050919050565b60006020820190508181036000830152613f5581613f19565b9050919050565b600081519050919050565b600082825260208201905092915050565b6000613f8382613f5c565b613f8d8185613f67565b9350613f9d818560208601612e6e565b613fa681612ea1565b840191505092915050565b6000608082019050613fc66000830187612f3f565b613fd36020830186612f3f565b613fe06040830185612d6d565b8181036060830152613ff28184613f78565b905095945050505050565b60008151905061400c81612dc3565b92915050565b60006020828403121561402857614027612d00565b5b600061403684828501613ffd565b91505092915050565b7f4552433732313a206d696e7420746f20746865207a65726f2061646472657373600082015250565b6000614075602083612e5d565b91506140808261403f565b602082019050919050565b600060208201905081810360008301526140a481614068565b9050919050565b7f4552433732313a20746f6b656e20616c7265616479206d696e74656400000000600082015250565b60006140e1601c83612e5d565b91506140ec826140ab565b602082019050919050565b60006020820190508181036000830152614110816140d4565b905091905056fea264697066735822122056f03f3b09044e774eb7309a02b2d73f0f48a8a9da8a491b1bdd3a1f9baf7d6e64736f6c63430008090033",
  "linkReferences": {},
  "deployedLinkReferences": {}
}