{
  "_format": "hh-sol-artifact-1",
  "contractName": "WarrentyNFT",
  "sourceName": "contracts/WarrentyNFT.sol",
  "abi": [
    {
      "inputs": [],
      "stateMutability": "nonpayable",
      "type": "constructor"
    },
    {
      "anonymous": false,
      "inputs": [
        {
          "indexed": true,
          "internalType": "address",
          "name": "owner",
          "type": "address"
        },
        {
          "indexed": true,
          "internalType": "address",
          "name": "approved",
          "type": "address"
        },
        {
          "indexed": true,
          "internalType": "uint256",
          "name": "tokenId",
          "type": "uint256"
        }
      ],
      "name": "Approval",
      "type": "event"
    },
    {
      "anonymous": false,
      "inputs": [
        {
          "indexed": true,
          "internalType": "address",
          "name": "owner",
          "type": "address"
        },
        {
          "indexed": true,
          "internalType": "address",
          "name": "operator",
          "type": "address"
        },
        {
          "indexed": false,
          "internalType": "bool",
          "name": "approved",
          "type": "bool"
        }
      ],
      "name": "ApprovalForAll",
      "type": "event"
    },
    {
      "anonymous": false,
      "inputs": [
        {
          "indexed": true,
          "internalType": "address",
          "name": "previousOwner",
          "type": "address"
        },
        {
          "indexed": true,
          "internalType": "address",
          "name": "newOwner",
          "type": "address"
        }
      ],
      "name": "OwnershipTransferred",
      "type": "event"
    },
    {
      "anonymous": false,
      "inputs": [
        {
          "indexed": true,
          "internalType": "uint256",
          "name": "tokenID",
          "type": "uint256"
        },
        {
          "indexed": false,
          "internalType": "string",
          "name": "note",
          "type": "string"
        }
      ],
      "name": "Repair",
      "type": "event"
    },
    {
      "anonymous": false,
      "inputs": [
        {
          "indexed": true,
          "internalType": "uint256",
          "name": "tokenID",
          "type": "uint256"
        },
        {
          "indexed": true,
          "internalType": "uint256",
          "name": "newTokenID",
          "type": "uint256"
        },
        {
          "indexed": false,
          "internalType": "string",
          "name": "note",
          "type": "string"
        }
      ],
      "name": "Replace",
      "type": "event"
    },
    {
      "anonymous": false,
      "inputs": [
        {
          "indexed": true,
          "internalType": "address",
          "name": "from",
          "type": "address"
        },
        {
          "indexed": true,
          "internalType": "address",
          "name": "to",
          "type": "address"
        },
        {
          "indexed": true,
          "internalType": "uint256",
          "name": "tokenId",
          "type": "uint256"
        }
      ],
      "name": "Transfer",
      "type": "event"
    },
    {
      "inputs": [
        {
          "internalType": "address",
          "name": "_admin",
          "type": "address"
        }
      ],
      "name": "addAdmin",
      "outputs": [],
      "stateMutability": "nonpayable",
      "type": "function"
    },
    {
      "inputs": [
        {
          "internalType": "uint256",
          "name": "productID",
          "type": "uint256"
        },
        {
          "internalType": "uint256",
          "name": "_warrentyPeriod",
          "type": "uint256"
        },
        {
          "internalType": "bool",
          "name": "_isSoulbound",
          "type": "bool"
        }
      ],
      "name": "addProduct",
      "outputs": [],
      "stateMutability": "nonpayable",
      "type": "function"
    },
    {
      "inputs": [
        {
          "internalType": "address",
          "name": "_seller",
          "type": "address"
        }
      ],
      "name": "addSeller",
      "outputs": [],
      "stateMutability": "nonpayable",
      "type": "function"
    },
    {
      "inputs": [
        {
          "internalType": "address",
          "name": "to",
          "type": "address"
        },
        {
          "internalType": "uint256",
          "name": "tokenId",
          "type": "uint256"
        }
      ],
      "name": "approve",
      "outputs": [],
      "stateMutability": "nonpayable",
      "type": "function"
    },
    {
      "inputs": [
        {
          "internalType": "address",
          "name": "owner",
          "type": "address"
        }
      ],
      "name": "balanceOf",
      "outputs": [
        {
          "internalType": "uint256",
          "name": "",
          "type": "uint256"
        }
      ],
      "stateMutability": "view",
      "type": "function"
    },
    {
      "inputs": [
        {
          "internalType": "uint256",
          "name": "tokenId",
          "type": "uint256"
        }
      ],
      "name": "burn",
      "outputs": [],
      "stateMutability": "nonpayable",
      "type": "function"
    },
    {
      "inputs": [
        {
          "internalType": "uint256",
          "name": "tokenId",
          "type": "uint256"
        }
      ],
      "name": "getApproved",
      "outputs": [
        {
          "internalType": "address",
          "name": "",
          "type": "address"
        }
      ],
      "stateMutability": "view",
      "type": "function"
    },
    {
      "inputs": [
        {
          "internalType": "address",
          "name": "owner",
          "type": "address"
        },
        {
          "internalType": "address",
          "name": "operator",
          "type": "address"
        }
      ],
      "name": "isApprovedForAll",
      "outputs": [
        {
          "internalType": "bool",
          "name": "",
          "type": "bool"
        }
      ],
      "stateMutability": "view",
      "type": "function"
    },
    {
      "inputs": [
        {
          "internalType": "address",
          "name": "buyer",
          "type": "address"
        },
        {
          "internalType": "uint256",
          "name": "productID",
          "type": "uint256"
        },
        {
          "internalType": "uint256",
          "name": "serialNo",
          "type": "uint256"
        },
        {
          "internalType": "uint256",
          "name": "tokenID",
          "type": "uint256"
        },
        {
          "internalType": "string",
          "name": "dataURI",
          "type": "string"
        }
      ],
      "name": "mintWarrentyNFT",
      "outputs": [],
      "stateMutability": "nonpayable",
      "type": "function"
    },
    {
      "inputs": [],
      "name": "name",
      "outputs": [
        {
          "internalType": "string",
          "name": "",
          "type": "string"
        }
      ],
      "stateMutability": "view",
      "type": "function"
    },
    {
      "inputs": [],
      "name": "owner",
      "outputs": [
        {
          "internalType": "address",
          "name": "",
          "type": "address"
        }
      ],
      "stateMutability": "view",
      "type": "function"
    },
    {
      "inputs": [
        {
          "internalType": "uint256",
          "name": "tokenId",
          "type": "uint256"
        }
      ],
      "name": "ownerOf",
      "outputs": [
        {
          "internalType": "address",
          "name": "",
          "type": "address"
        }
      ],
      "stateMutability": "view",
      "type": "function"
    },
    {
      "inputs": [
        {
          "internalType": "address",
          "name": "_admin",
          "type": "address"
        }
      ],
      "name": "removeAdmin",
      "outputs": [],
      "stateMutability": "nonpayable",
      "type": "function"
    },
    {
      "inputs": [
        {
          "internalType": "address",
          "name": "_seller",
          "type": "address"
        }
      ],
      "name": "removeSeller",
      "outputs": [],
      "stateMutability": "nonpayable",
      "type": "function"
    },
    {
      "inputs": [],
      "name": "renounceOwnership",
      "outputs": [],
      "stateMutability": "nonpayable",
      "type": "function"
    },
    {
      "inputs": [
        {
          "internalType": "uint256",
          "name": "tokenID",
          "type": "uint256"
        },
        {
          "internalType": "string",
          "name": "note",
          "type": "string"
        }
      ],
      "name": "repairProduct",
      "outputs": [],
      "stateMutability": "nonpayable",
      "type": "function"
    },
    {
      "inputs": [
        {
          "internalType": "uint256",
          "name": "tokenID",
          "type": "uint256"
        },
        {
          "internalType": "uint256",
          "name": "newTokenID",
          "type": "uint256"
        },
        {
          "internalType": "string",
          "name": "note",
          "type": "string"
        }
      ],
      "name": "replaceProduct",
      "outputs": [],
      "stateMutability": "nonpayable",
      "type": "function"
    },
    {
      "inputs": [
        {
          "internalType": "address",
          "name": "from",
          "type": "address"
        },
        {
          "internalType": "address",
          "name": "to",
          "type": "address"
        },
        {
          "internalType": "uint256",
          "name": "tokenId",
          "type": "uint256"
        }
      ],
      "name": "safeTransferFrom",
      "outputs": [],
      "stateMutability": "nonpayable",
      "type": "function"
    },
    {
      "inputs": [
        {
          "internalType": "address",
          "name": "from",
          "type": "address"
        },
        {
          "internalType": "address",
          "name": "to",
          "type": "address"
        },
        {
          "internalType": "uint256",
          "name": "tokenId",
          "type": "uint256"
        },
        {
          "internalType": "bytes",
          "name": "data",
          "type": "bytes"
        }
      ],
      "name": "safeTransferFrom",
      "outputs": [],
      "stateMutability": "nonpayable",
      "type": "function"
    },
    {
      "inputs": [
        {
          "internalType": "address",
          "name": "operator",
          "type": "address"
        },
        {
          "internalType": "bool",
          "name": "approved",
          "type": "bool"
        }
      ],
      "name": "setApprovalForAll",
      "outputs": [],
      "stateMutability": "nonpayable",
      "type": "function"
    },
    {
      "inputs": [
        {
          "internalType": "bytes4",
          "name": "interfaceId",
          "type": "bytes4"
        }
      ],
      "name": "supportsInterface",
      "outputs": [
        {
          "internalType": "bool",
          "name": "",
          "type": "bool"
        }
      ],
      "stateMutability": "view",
      "type": "function"
    },
    {
      "inputs": [],
      "name": "symbol",
      "outputs": [
        {
          "internalType": "string",
          "name": "",
          "type": "string"
        }
      ],
      "stateMutability": "view",
      "type": "function"
    },
    {
      "inputs": [
        {
          "internalType": "uint256",
          "name": "tokenId",
          "type": "uint256"
        }
      ],
      "name": "tokenURI",
      "outputs": [
        {
          "internalType": "string",
          "name": "",
          "type": "string"
        }
      ],
      "stateMutability": "view",
      "type": "function"
    },
    {
      "inputs": [
        {
          "internalType": "address",
          "name": "from",
          "type": "address"
        },
        {
          "internalType": "address",
          "name": "to",
          "type": "address"
        },
        {
          "internalType": "uint256",
          "name": "tokenId",
          "type": "uint256"
        }
      ],
      "name": "transferFrom",
      "outputs": [],
      "stateMutability": "nonpayable",
      "type": "function"
    },
    {
      "inputs": [
        {
          "internalType": "address",
          "name": "newOwner",
          "type": "address"
        }
      ],
      "name": "transferOwnership",
      "outputs": [],
      "stateMutability": "nonpayable",
      "type": "function"
    }
  ],
  "bytecode": "0x60806040523480156200001157600080fd5b506040518060400160405280600881526020017f57617272656e74790000000000000000000000000000000000000000000000008152506040518060400160405280600181526020017f5700000000000000000000000000000000000000000000000000000000000000815250816000908051906020019062000096929190620001e7565b508060019080519060200190620000af929190620001e7565b505050620000d2620000c66200011960201b60201c565b6200012160201b60201c565b33600860006101000a81548173ffffffffffffffffffffffffffffffffffffffff021916908373ffffffffffffffffffffffffffffffffffffffff160217905550620002fc565b600033905090565b6000600760009054906101000a900473ffffffffffffffffffffffffffffffffffffffff16905081600760006101000a81548173ffffffffffffffffffffffffffffffffffffffff021916908373ffffffffffffffffffffffffffffffffffffffff1602179055508173ffffffffffffffffffffffffffffffffffffffff168173ffffffffffffffffffffffffffffffffffffffff167f8be0079c531659141344cd1fd0a4f28419497f9722a3daafe3b4186f6b6457e060405160405180910390a35050565b828054620001f590620002c6565b90600052602060002090601f01602090048101928262000219576000855562000265565b82601f106200023457805160ff191683800117855562000265565b8280016001018555821562000265579182015b828111156200026457825182559160200191906001019062000247565b5b50905062000274919062000278565b5090565b5b808211156200029357600081600090555060010162000279565b5090565b7f4e487b7100000000000000000000000000000000000000000000000000000000600052602260045260246000fd5b60006002820490506001821680620002df57607f821691505b60208210811415620002f657620002f562000297565b5b50919050565b6140d4806200030c6000396000f3fe608060405234801561001057600080fd5b50600436106101735760003560e01c806370480275116100de578063a22cb46511610097578063d93fabfa11610071578063d93fabfa1461041c578063e985e9c514610438578063f2fde38b14610468578063fc45e66c1461048457610173565b8063a22cb465146103b4578063b88d4fde146103d0578063c87b56dd146103ec57610173565b8063704802751461030657806370a0823114610322578063715018a6146103525780637cb9cf541461035c5780638da5cb5b1461037857806395d89b411461039657610173565b80631785f53c116101305780631785f53c1461024a57806323b872dd14610266578063300c54981461028257806342842e0e1461029e57806342966c68146102ba5780636352211e146102d657610173565b806301ffc9a7146101785780630331d473146101a857806306fdde03146101c4578063081812fc146101e2578063095ea7b31461021257806312d101d11461022e575b600080fd5b610192600480360381019061018d9190612899565b6104a0565b60405161019f91906128e1565b60405180910390f35b6101c260048036038101906101bd9190612a78565b610582565b005b6101cc6106f6565b6040516101d99190612b6f565b60405180910390f35b6101fc60048036038101906101f79190612b91565b610788565b6040516102099190612bff565b60405180910390f35b61022c60048036038101906102279190612c46565b6107ce565b005b61024860048036038101906102439190612c86565b6108e6565b005b610264600480360381019061025f9190612d1d565b6109a5565b005b610280600480360381019061027b9190612d4a565b610aeb565b005b61029c60048036038101906102979190612d9d565b610b4b565b005b6102b860048036038101906102b39190612d4a565b610c92565b005b6102d460048036038101906102cf9190612b91565b610cb2565b005b6102f060048036038101906102eb9190612b91565b610d0e565b6040516102fd9190612bff565b60405180910390f35b610320600480360381019061031b9190612d1d565b610dc0565b005b61033c60048036038101906103379190612d1d565b610f06565b6040516103499190612e08565b60405180910390f35b61035a610fbe565b005b61037660048036038101906103719190612d1d565b610fd2565b005b610380611118565b60405161038d9190612bff565b60405180910390f35b61039e611142565b6040516103ab9190612b6f565b60405180910390f35b6103ce60048036038101906103c99190612e4f565b6111d4565b005b6103ea60048036038101906103e59190612f30565b6111ea565b005b61040660048036038101906104019190612b91565b61124c565b6040516104139190612b6f565b60405180910390f35b61043660048036038101906104319190612d1d565b61125e565b005b610452600480360381019061044d9190612fb3565b6113a4565b60405161045f91906128e1565b60405180910390f35b610482600480360381019061047d9190612d1d565b611438565b005b61049e60048036038101906104999190612ff3565b6114bc565b005b60007f80ac58cd000000000000000000000000000000000000000000000000000000007bffffffffffffffffffffffffffffffffffffffffffffffffffffffff1916827bffffffffffffffffffffffffffffffffffffffffffffffffffffffff1916148061056b57507f5b5e139f000000000000000000000000000000000000000000000000000000007bffffffffffffffffffffffffffffffffffffffffffffffffffffffff1916827bffffffffffffffffffffffffffffffffffffffffffffffffffffffff1916145b8061057b575061057a82611591565b5b9050919050565b60011515600a60003373ffffffffffffffffffffffffffffffffffffffff1673ffffffffffffffffffffffffffffffffffffffff16815260200190815260200160002060009054906101000a900460ff16151514610615576040517f08c379a000000000000000000000000000000000000000000000000000000000815260040161060c906130b8565b60405180910390fd5b600073ffffffffffffffffffffffffffffffffffffffff1661063684610d0e565b73ffffffffffffffffffffffffffffffffffffffff16141561068d576040517f08c379a00000000000000000000000000000000000000000000000000000000081526004016106849061314a565b60405180910390fd5b600d600084815260200190815260200160002054600d60008481526020019081526020016000208190555081837fc814d6d910b7838bb54617465615b49f443919be2261c03e7a6f36e5b8fdee9b836040516106e99190612b6f565b60405180910390a3505050565b60606000805461070590613199565b80601f016020809104026020016040519081016040528092919081815260200182805461073190613199565b801561077e5780601f106107535761010080835404028352916020019161077e565b820191906000526020600020905b81548152906001019060200180831161076157829003601f168201915b5050505050905090565b6000610793826115fb565b6004600083815260200190815260200160002060009054906101000a900473ffffffffffffffffffffffffffffffffffffffff169050919050565b60006107d982610d0e565b90508073ffffffffffffffffffffffffffffffffffffffff168373ffffffffffffffffffffffffffffffffffffffff16141561084a576040517f08c379a00000000000000000000000000000000000000000000000000000000081526004016108419061323d565b60405180910390fd5b8073ffffffffffffffffffffffffffffffffffffffff16610869611646565b73ffffffffffffffffffffffffffffffffffffffff161480610898575061089781610892611646565b6113a4565b5b6108d7576040517f08c379a00000000000000000000000000000000000000000000000000000000081526004016108ce906132cf565b60405180910390fd5b6108e1838361164e565b505050565b600a60003373ffffffffffffffffffffffffffffffffffffffff1673ffffffffffffffffffffffffffffffffffffffff16815260200190815260200160002060009054906101000a900460ff16610972576040517f08c379a000000000000000000000000000000000000000000000000000000000815260040161096990613361565b60405180910390fd5b42600d6000848152602001908152602001600020819055506109948583611707565b61099e8282611725565b5050505050565b600860009054906101000a900473ffffffffffffffffffffffffffffffffffffffff1673ffffffffffffffffffffffffffffffffffffffff163373ffffffffffffffffffffffffffffffffffffffff161480610a51575060011515600960003373ffffffffffffffffffffffffffffffffffffffff1673ffffffffffffffffffffffffffffffffffffffff16815260200190815260200160002060009054906101000a900460ff161515145b610a90576040517f08c379a0000000000000000000000000000000000000000000000000000000008152600401610a87906133f3565b60405180910390fd5b6000600960008373ffffffffffffffffffffffffffffffffffffffff1673ffffffffffffffffffffffffffffffffffffffff16815260200190815260200160002060006101000a81548160ff02191690831515021790555050565b610afc610af6611646565b82611799565b610b3b576040517f08c379a0000000000000000000000000000000000000000000000000000000008152600401610b3290613485565b60405180910390fd5b610b4683838361182e565b505050565b60011515600a60003373ffffffffffffffffffffffffffffffffffffffff1673ffffffffffffffffffffffffffffffffffffffff16815260200190815260200160002060009054906101000a900460ff16151514610bde576040517f08c379a0000000000000000000000000000000000000000000000000000000008152600401610bd590613517565b60405180910390fd5b600073ffffffffffffffffffffffffffffffffffffffff16610bff83610d0e565b73ffffffffffffffffffffffffffffffffffffffff161415610c56576040517f08c379a0000000000000000000000000000000000000000000000000000000008152600401610c4d9061314a565b60405180910390fd5b817fc5f9a46b4a7b5a3420219c6a5808f974f70baddc6f3a7344ad08b298bfe4f6d082604051610c869190612b6f565b60405180910390a25050565b610cad838383604051806020016040528060008152506111ea565b505050565b610cc3610cbd611646565b82611799565b610d02576040517f08c379a0000000000000000000000000000000000000000000000000000000008152600401610cf990613485565b60405180910390fd5b610d0b81611a95565b50565b6000806002600084815260200190815260200160002060009054906101000a900473ffffffffffffffffffffffffffffffffffffffff169050600073ffffffffffffffffffffffffffffffffffffffff168173ffffffffffffffffffffffffffffffffffffffff161415610db7576040517f08c379a0000000000000000000000000000000000000000000000000000000008152600401610dae90613583565b60405180910390fd5b80915050919050565b600860009054906101000a900473ffffffffffffffffffffffffffffffffffffffff1673ffffffffffffffffffffffffffffffffffffffff163373ffffffffffffffffffffffffffffffffffffffff161480610e6c575060011515600960003373ffffffffffffffffffffffffffffffffffffffff1673ffffffffffffffffffffffffffffffffffffffff16815260200190815260200160002060009054906101000a900460ff161515145b610eab576040517f08c379a0000000000000000000000000000000000000000000000000000000008152600401610ea290613615565b60405180910390fd5b6001600960008373ffffffffffffffffffffffffffffffffffffffff1673ffffffffffffffffffffffffffffffffffffffff16815260200190815260200160002060006101000a81548160ff02191690831515021790555050565b60008073ffffffffffffffffffffffffffffffffffffffff168273ffffffffffffffffffffffffffffffffffffffff161415610f77576040517f08c379a0000000000000000000000000000000000000000000000000000000008152600401610f6e906136a7565b60405180910390fd5b600360008373ffffffffffffffffffffffffffffffffffffffff1673ffffffffffffffffffffffffffffffffffffffff168152602001908152602001600020549050919050565b610fc6611aa1565b610fd06000611b1f565b565b600860009054906101000a900473ffffffffffffffffffffffffffffffffffffffff1673ffffffffffffffffffffffffffffffffffffffff163373ffffffffffffffffffffffffffffffffffffffff16148061107e575060011515600960003373ffffffffffffffffffffffffffffffffffffffff1673ffffffffffffffffffffffffffffffffffffffff16815260200190815260200160002060009054906101000a900460ff161515145b6110bd576040517f08c379a00000000000000000000000000000000000000000000000000000000081526004016110b490613739565b60405180910390fd5b6000600a60008373ffffffffffffffffffffffffffffffffffffffff1673ffffffffffffffffffffffffffffffffffffffff16815260200190815260200160002060006101000a81548160ff02191690831515021790555050565b6000600760009054906101000a900473ffffffffffffffffffffffffffffffffffffffff16905090565b60606001805461115190613199565b80601f016020809104026020016040519081016040528092919081815260200182805461117d90613199565b80156111ca5780601f1061119f576101008083540402835291602001916111ca565b820191906000526020600020905b8154815290600101906020018083116111ad57829003601f168201915b5050505050905090565b6111e66111df611646565b8383611be5565b5050565b6111fb6111f5611646565b83611799565b61123a576040517f08c379a000000000000000000000000000000000000000000000000000000000815260040161123190613485565b60405180910390fd5b61124684848484611d52565b50505050565b606061125782611dae565b9050919050565b600860009054906101000a900473ffffffffffffffffffffffffffffffffffffffff1673ffffffffffffffffffffffffffffffffffffffff163373ffffffffffffffffffffffffffffffffffffffff16148061130a575060011515600960003373ffffffffffffffffffffffffffffffffffffffff1673ffffffffffffffffffffffffffffffffffffffff16815260200190815260200160002060009054906101000a900460ff161515145b611349576040517f08c379a0000000000000000000000000000000000000000000000000000000008152600401611340906137f1565b60405180910390fd5b6001600a60008373ffffffffffffffffffffffffffffffffffffffff1673ffffffffffffffffffffffffffffffffffffffff16815260200190815260200160002060006101000a81548160ff02191690831515021790555050565b6000600560008473ffffffffffffffffffffffffffffffffffffffff1673ffffffffffffffffffffffffffffffffffffffff16815260200190815260200160002060008373ffffffffffffffffffffffffffffffffffffffff1673ffffffffffffffffffffffffffffffffffffffff16815260200190815260200160002060009054906101000a900460ff16905092915050565b611440611aa1565b600073ffffffffffffffffffffffffffffffffffffffff168173ffffffffffffffffffffffffffffffffffffffff1614156114b0576040517f08c379a00000000000000000000000000000000000000000000000000000000081526004016114a790613883565b60405180910390fd5b6114b981611b1f565b50565b600a60003373ffffffffffffffffffffffffffffffffffffffff1673ffffffffffffffffffffffffffffffffffffffff16815260200190815260200160002060009054906101000a900460ff16611548576040517f08c379a000000000000000000000000000000000000000000000000000000000815260040161153f90613915565b60405180910390fd5b81600c6000858152602001908152602001600020819055508015600b600085815260200190815260200160002060006101000a81548160ff021916908315150217905550505050565b60007f01ffc9a7000000000000000000000000000000000000000000000000000000007bffffffffffffffffffffffffffffffffffffffffffffffffffffffff1916827bffffffffffffffffffffffffffffffffffffffffffffffffffffffff1916149050919050565b61160481611ec1565b611643576040517f08c379a000000000000000000000000000000000000000000000000000000000815260040161163a90613583565b60405180910390fd5b50565b600033905090565b816004600083815260200190815260200160002060006101000a81548173ffffffffffffffffffffffffffffffffffffffff021916908373ffffffffffffffffffffffffffffffffffffffff160217905550808273ffffffffffffffffffffffffffffffffffffffff166116c183610d0e565b73ffffffffffffffffffffffffffffffffffffffff167f8c5be1e5ebec7d5bd14f71427d1e84f3dd0314c0f7b2291e5b200ac8c7c3b92560405160405180910390a45050565b611721828260405180602001604052806000815250611f2d565b5050565b61172e82611ec1565b61176d576040517f08c379a0000000000000000000000000000000000000000000000000000000008152600401611764906139a7565b60405180910390fd5b8060066000848152602001908152602001600020908051906020019061179492919061274a565b505050565b6000806117a583610d0e565b90508073ffffffffffffffffffffffffffffffffffffffff168473ffffffffffffffffffffffffffffffffffffffff1614806117e757506117e681856113a4565b5b8061182557508373ffffffffffffffffffffffffffffffffffffffff1661180d84610788565b73ffffffffffffffffffffffffffffffffffffffff16145b91505092915050565b8273ffffffffffffffffffffffffffffffffffffffff1661184e82610d0e565b73ffffffffffffffffffffffffffffffffffffffff16146118a4576040517f08c379a000000000000000000000000000000000000000000000000000000000815260040161189b90613a39565b60405180910390fd5b600073ffffffffffffffffffffffffffffffffffffffff168273ffffffffffffffffffffffffffffffffffffffff161415611914576040517f08c379a000000000000000000000000000000000000000000000000000000000815260040161190b90613acb565b60405180910390fd5b61191f838383611f88565b61192a60008261164e565b6001600360008573ffffffffffffffffffffffffffffffffffffffff1673ffffffffffffffffffffffffffffffffffffffff168152602001908152602001600020600082825461197a9190613b1a565b925050819055506001600360008473ffffffffffffffffffffffffffffffffffffffff1673ffffffffffffffffffffffffffffffffffffffff16815260200190815260200160002060008282546119d19190613b4e565b92505081905550816002600083815260200190815260200160002060006101000a81548173ffffffffffffffffffffffffffffffffffffffff021916908373ffffffffffffffffffffffffffffffffffffffff160217905550808273ffffffffffffffffffffffffffffffffffffffff168473ffffffffffffffffffffffffffffffffffffffff167fddf252ad1be2c89b69c2b068fc378daa952ba7f163c4a11628f55a4df523b3ef60405160405180910390a4611a90838383612061565b505050565b611a9e81612066565b50565b611aa9611646565b73ffffffffffffffffffffffffffffffffffffffff16611ac7611118565b73ffffffffffffffffffffffffffffffffffffffff1614611b1d576040517f08c379a0000000000000000000000000000000000000000000000000000000008152600401611b1490613bf0565b60405180910390fd5b565b6000600760009054906101000a900473ffffffffffffffffffffffffffffffffffffffff16905081600760006101000a81548173ffffffffffffffffffffffffffffffffffffffff021916908373ffffffffffffffffffffffffffffffffffffffff1602179055508173ffffffffffffffffffffffffffffffffffffffff168173ffffffffffffffffffffffffffffffffffffffff167f8be0079c531659141344cd1fd0a4f28419497f9722a3daafe3b4186f6b6457e060405160405180910390a35050565b8173ffffffffffffffffffffffffffffffffffffffff168373ffffffffffffffffffffffffffffffffffffffff161415611c54576040517f08c379a0000000000000000000000000000000000000000000000000000000008152600401611c4b90613c5c565b60405180910390fd5b80600560008573ffffffffffffffffffffffffffffffffffffffff1673ffffffffffffffffffffffffffffffffffffffff16815260200190815260200160002060008473ffffffffffffffffffffffffffffffffffffffff1673ffffffffffffffffffffffffffffffffffffffff16815260200190815260200160002060006101000a81548160ff0219169083151502179055508173ffffffffffffffffffffffffffffffffffffffff168373ffffffffffffffffffffffffffffffffffffffff167f17307eab39ab6107e8899845ad3d59bd9653f200f220920489ca2b5937696c3183604051611d4591906128e1565b60405180910390a3505050565b611d5d84848461182e565b611d69848484846120b9565b611da8576040517f08c379a0000000000000000000000000000000000000000000000000000000008152600401611d9f90613cee565b60405180910390fd5b50505050565b6060611db9826115fb565b6000600660008481526020019081526020016000208054611dd990613199565b80601f0160208091040260200160405190810160405280929190818152602001828054611e0590613199565b8015611e525780601f10611e2757610100808354040283529160200191611e52565b820191906000526020600020905b815481529060010190602001808311611e3557829003601f168201915b505050505090506000611e63612250565b9050600081511415611e79578192505050611ebc565b600082511115611eae578082604051602001611e96929190613d4a565b60405160208183030381529060405292505050611ebc565b611eb784612267565b925050505b919050565b60008073ffffffffffffffffffffffffffffffffffffffff166002600084815260200190815260200160002060009054906101000a900473ffffffffffffffffffffffffffffffffffffffff1673ffffffffffffffffffffffffffffffffffffffff1614159050919050565b611f3783836122cf565b611f4460008484846120b9565b611f83576040517f08c379a0000000000000000000000000000000000000000000000000000000008152600401611f7a90613cee565b60405180910390fd5b505050565b60001515600b600083815260200190815260200160002060009054906101000a900460ff161515141561205c57600073ffffffffffffffffffffffffffffffffffffffff168373ffffffffffffffffffffffffffffffffffffffff16148061201c5750600073ffffffffffffffffffffffffffffffffffffffff168273ffffffffffffffffffffffffffffffffffffffff16145b61205b576040517f08c379a000000000000000000000000000000000000000000000000000000000815260040161205290613dba565b60405180910390fd5b5b505050565b505050565b61206f816124a9565b600060066000838152602001908152602001600020805461208f90613199565b9050146120b6576006600082815260200190815260200160002060006120b591906127d0565b5b50565b60006120da8473ffffffffffffffffffffffffffffffffffffffff166125c6565b15612243578373ffffffffffffffffffffffffffffffffffffffff1663150b7a02612103611646565b8786866040518563ffffffff1660e01b81526004016121259493929190613e2f565b602060405180830381600087803b15801561213f57600080fd5b505af192505050801561217057506040513d601f19601f8201168201806040525081019061216d9190613e90565b60015b6121f3573d80600081146121a0576040519150601f19603f3d011682016040523d82523d6000602084013e6121a5565b606091505b506000815114156121eb576040517f08c379a00000000000000000000000000000000000000000000000000000000081526004016121e290613cee565b60405180910390fd5b805181602001fd5b63150b7a0260e01b7bffffffffffffffffffffffffffffffffffffffffffffffffffffffff1916817bffffffffffffffffffffffffffffffffffffffffffffffffffffffff191614915050612248565b600190505b949350505050565b606060405180602001604052806000815250905090565b6060612272826115fb565b600061227c612250565b9050600081511161229c57604051806020016040528060008152506122c7565b806122a6846125e9565b6040516020016122b7929190613d4a565b6040516020818303038152906040525b915050919050565b600073ffffffffffffffffffffffffffffffffffffffff168273ffffffffffffffffffffffffffffffffffffffff16141561233f576040517f08c379a000000000000000000000000000000000000000000000000000000000815260040161233690613f09565b60405180910390fd5b61234881611ec1565b15612388576040517f08c379a000000000000000000000000000000000000000000000000000000000815260040161237f90613f75565b60405180910390fd5b61239460008383611f88565b6001600360008473ffffffffffffffffffffffffffffffffffffffff1673ffffffffffffffffffffffffffffffffffffffff16815260200190815260200160002060008282546123e49190613b4e565b92505081905550816002600083815260200190815260200160002060006101000a81548173ffffffffffffffffffffffffffffffffffffffff021916908373ffffffffffffffffffffffffffffffffffffffff160217905550808273ffffffffffffffffffffffffffffffffffffffff16600073ffffffffffffffffffffffffffffffffffffffff167fddf252ad1be2c89b69c2b068fc378daa952ba7f163c4a11628f55a4df523b3ef60405160405180910390a46124a560008383612061565b5050565b60006124b482610d0e565b90506124c281600084611f88565b6124cd60008361164e565b6001600360008373ffffffffffffffffffffffffffffffffffffffff1673ffffffffffffffffffffffffffffffffffffffff168152602001908152602001600020600082825461251d9190613b1a565b925050819055506002600083815260200190815260200160002060006101000a81549073ffffffffffffffffffffffffffffffffffffffff021916905581600073ffffffffffffffffffffffffffffffffffffffff168273ffffffffffffffffffffffffffffffffffffffff167fddf252ad1be2c89b69c2b068fc378daa952ba7f163c4a11628f55a4df523b3ef60405160405180910390a46125c281600084612061565b5050565b6000808273ffffffffffffffffffffffffffffffffffffffff163b119050919050565b60606000821415612631576040518060400160405280600181526020017f30000000000000000000000000000000000000000000000000000000000000008152509050612745565b600082905060005b6000821461266357808061264c90613f95565b915050600a8261265c919061400d565b9150612639565b60008167ffffffffffffffff81111561267f5761267e61294d565b5b6040519080825280601f01601f1916602001820160405280156126b15781602001600182028036833780820191505090505b5090505b6000851461273e576001826126ca9190613b1a565b9150600a856126d9919061403e565b60306126e59190613b4e565b60f81b8183815181106126fb576126fa61406f565b5b60200101907effffffffffffffffffffffffffffffffffffffffffffffffffffffffffffff1916908160001a905350600a85612737919061400d565b94506126b5565b8093505050505b919050565b82805461275690613199565b90600052602060002090601f01602090048101928261277857600085556127bf565b82601f1061279157805160ff19168380011785556127bf565b828001600101855582156127bf579182015b828111156127be5782518255916020019190600101906127a3565b5b5090506127cc9190612810565b5090565b5080546127dc90613199565b6000825580601f106127ee575061280d565b601f01602090049060005260206000209081019061280c9190612810565b5b50565b5b80821115612829576000816000905550600101612811565b5090565b6000604051905090565b600080fd5b600080fd5b60007fffffffff0000000000000000000000000000000000000000000000000000000082169050919050565b61287681612841565b811461288157600080fd5b50565b6000813590506128938161286d565b92915050565b6000602082840312156128af576128ae612837565b5b60006128bd84828501612884565b91505092915050565b60008115159050919050565b6128db816128c6565b82525050565b60006020820190506128f660008301846128d2565b92915050565b6000819050919050565b61290f816128fc565b811461291a57600080fd5b50565b60008135905061292c81612906565b92915050565b600080fd5b600080fd5b6000601f19601f8301169050919050565b7f4e487b7100000000000000000000000000000000000000000000000000000000600052604160045260246000fd5b6129858261293c565b810181811067ffffffffffffffff821117156129a4576129a361294d565b5b80604052505050565b60006129b761282d565b90506129c3828261297c565b919050565b600067ffffffffffffffff8211156129e3576129e261294d565b5b6129ec8261293c565b9050602081019050919050565b82818337600083830152505050565b6000612a1b612a16846129c8565b6129ad565b905082815260208101848484011115612a3757612a36612937565b5b612a428482856129f9565b509392505050565b600082601f830112612a5f57612a5e612932565b5b8135612a6f848260208601612a08565b91505092915050565b600080600060608486031215612a9157612a90612837565b5b6000612a9f8682870161291d565b9350506020612ab08682870161291d565b925050604084013567ffffffffffffffff811115612ad157612ad061283c565b5b612add86828701612a4a565b9150509250925092565b600081519050919050565b600082825260208201905092915050565b60005b83811015612b21578082015181840152602081019050612b06565b83811115612b30576000848401525b50505050565b6000612b4182612ae7565b612b4b8185612af2565b9350612b5b818560208601612b03565b612b648161293c565b840191505092915050565b60006020820190508181036000830152612b898184612b36565b905092915050565b600060208284031215612ba757612ba6612837565b5b6000612bb58482850161291d565b91505092915050565b600073ffffffffffffffffffffffffffffffffffffffff82169050919050565b6000612be982612bbe565b9050919050565b612bf981612bde565b82525050565b6000602082019050612c146000830184612bf0565b92915050565b612c2381612bde565b8114612c2e57600080fd5b50565b600081359050612c4081612c1a565b92915050565b60008060408385031215612c5d57612c5c612837565b5b6000612c6b85828601612c31565b9250506020612c7c8582860161291d565b9150509250929050565b600080600080600060a08688031215612ca257612ca1612837565b5b6000612cb088828901612c31565b9550506020612cc18882890161291d565b9450506040612cd28882890161291d565b9350506060612ce38882890161291d565b925050608086013567ffffffffffffffff811115612d0457612d0361283c565b5b612d1088828901612a4a565b9150509295509295909350565b600060208284031215612d3357612d32612837565b5b6000612d4184828501612c31565b91505092915050565b600080600060608486031215612d6357612d62612837565b5b6000612d7186828701612c31565b9350506020612d8286828701612c31565b9250506040612d938682870161291d565b9150509250925092565b60008060408385031215612db457612db3612837565b5b6000612dc28582860161291d565b925050602083013567ffffffffffffffff811115612de357612de261283c565b5b612def85828601612a4a565b9150509250929050565b612e02816128fc565b82525050565b6000602082019050612e1d6000830184612df9565b92915050565b612e2c816128c6565b8114612e3757600080fd5b50565b600081359050612e4981612e23565b92915050565b60008060408385031215612e6657612e65612837565b5b6000612e7485828601612c31565b9250506020612e8585828601612e3a565b9150509250929050565b600067ffffffffffffffff821115612eaa57612ea961294d565b5b612eb38261293c565b9050602081019050919050565b6000612ed3612ece84612e8f565b6129ad565b905082815260208101848484011115612eef57612eee612937565b5b612efa8482856129f9565b509392505050565b600082601f830112612f1757612f16612932565b5b8135612f27848260208601612ec0565b91505092915050565b60008060008060808587031215612f4a57612f49612837565b5b6000612f5887828801612c31565b9450506020612f6987828801612c31565b9350506040612f7a8782880161291d565b925050606085013567ffffffffffffffff811115612f9b57612f9a61283c565b5b612fa787828801612f02565b91505092959194509250565b60008060408385031215612fca57612fc9612837565b5b6000612fd885828601612c31565b9250506020612fe985828601612c31565b9150509250929050565b60008060006060848603121561300c5761300b612837565b5b600061301a8682870161291d565b935050602061302b8682870161291d565b925050604061303c86828701612e3a565b9150509250925092565b7f4f6e6c792073656c6c6572732063616e207265706c61636520612070726f647560008201527f6374000000000000000000000000000000000000000000000000000000000000602082015250565b60006130a2602283612af2565b91506130ad82613046565b604082019050919050565b600060208201905081810360008301526130d181613095565b9050919050565b7f5468652070726f647563742065697468657220646f6573206e6f74206578697360008201527f74206f7220686173206e6f74206265656e20736f6c6420796574000000000000602082015250565b6000613134603a83612af2565b915061313f826130d8565b604082019050919050565b6000602082019050818103600083015261316381613127565b9050919050565b7f4e487b7100000000000000000000000000000000000000000000000000000000600052602260045260246000fd5b600060028204905060018216806131b157607f821691505b602082108114156131c5576131c461316a565b5b50919050565b7f4552433732313a20617070726f76616c20746f2063757272656e74206f776e6560008201527f7200000000000000000000000000000000000000000000000000000000000000602082015250565b6000613227602183612af2565b9150613232826131cb565b604082019050919050565b600060208201905081810360008301526132568161321a565b9050919050565b7f4552433732313a20617070726f76652063616c6c6572206973206e6f7420746f60008201527f6b656e206f776e6572206e6f7220617070726f76656420666f7220616c6c0000602082015250565b60006132b9603e83612af2565b91506132c48261325d565b604082019050919050565b600060208201905081810360008301526132e8816132ac565b9050919050565b7f4f6e6c79206120726567697374657265642073656c6c65722063616e206d696e60008201527f742061206e65772070726f647563740000000000000000000000000000000000602082015250565b600061334b602f83612af2565b9150613356826132ef565b604082019050919050565b6000602082019050818103600083015261337a8161333e565b9050919050565b7f4f6e6c792074686520636f6e7472616374206f776e6572206f7220616e20657860008201527f697374696e672061646d696e2063616e2072656d6f766520616e2061646d696e602082015250565b60006133dd604083612af2565b91506133e882613381565b604082019050919050565b6000602082019050818103600083015261340c816133d0565b9050919050565b7f4552433732313a2063616c6c6572206973206e6f7420746f6b656e206f776e6560008201527f72206e6f7220617070726f766564000000000000000000000000000000000000602082015250565b600061346f602e83612af2565b915061347a82613413565b604082019050919050565b6000602082019050818103600083015261349e81613462565b9050919050565b7f4f6e6c792073656c6c6572732063616e2072657061697220612070726f64756360008201527f7400000000000000000000000000000000000000000000000000000000000000602082015250565b6000613501602183612af2565b915061350c826134a5565b604082019050919050565b60006020820190508181036000830152613530816134f4565b9050919050565b7f4552433732313a20696e76616c696420746f6b656e2049440000000000000000600082015250565b600061356d601883612af2565b915061357882613537565b602082019050919050565b6000602082019050818103600083015261359c81613560565b9050919050565b7f4f6e6c792074686520636f6e7472616374206f776e6572206f7220616e20657860008201527f697374696e672061646d696e2063616e206164642061206e65772061646d696e602082015250565b60006135ff604083612af2565b915061360a826135a3565b604082019050919050565b6000602082019050818103600083015261362e816135f2565b9050919050565b7f4552433732313a2061646472657373207a65726f206973206e6f74206120766160008201527f6c6964206f776e65720000000000000000000000000000000000000000000000602082015250565b6000613691602983612af2565b915061369c82613635565b604082019050919050565b600060208201905081810360008301526136c081613684565b9050919050565b7f4f6e6c792074686520636f6e7472616374206f776e6572206f7220616e20657860008201527f697374696e672061646d696e2063616e2072656d6f766520612073656c6c6572602082015250565b6000613723604083612af2565b915061372e826136c7565b604082019050919050565b6000602082019050818103600083015261375281613716565b9050919050565b7f4f6e6c792074686520636f6e7472616374206f776e6572206f7220616e20657860008201527f697374696e672061646d696e2063616e206164642061206e65772073656c6c6560208201527f7200000000000000000000000000000000000000000000000000000000000000604082015250565b60006137db604183612af2565b91506137e682613759565b606082019050919050565b6000602082019050818103600083015261380a816137ce565b9050919050565b7f4f776e61626c653a206e6577206f776e657220697320746865207a65726f206160008201527f6464726573730000000000000000000000000000000000000000000000000000602082015250565b600061386d602683612af2565b915061387882613811565b604082019050919050565b6000602082019050818103600083015261389c81613860565b9050919050565b7f4f6e6c79206120726567697374657265642073656c6c65722063616e2061646460008201527f2061206e65772070726f64756374000000000000000000000000000000000000602082015250565b60006138ff602e83612af2565b915061390a826138a3565b604082019050919050565b6000602082019050818103600083015261392e816138f2565b9050919050565b7f45524337323155524953746f726167653a2055524920736574206f66206e6f6e60008201527f6578697374656e7420746f6b656e000000000000000000000000000000000000602082015250565b6000613991602e83612af2565b915061399c82613935565b604082019050919050565b600060208201905081810360008301526139c081613984565b9050919050565b7f4552433732313a207472616e736665722066726f6d20696e636f72726563742060008201527f6f776e6572000000000000000000000000000000000000000000000000000000602082015250565b6000613a23602583612af2565b9150613a2e826139c7565b604082019050919050565b60006020820190508181036000830152613a5281613a16565b9050919050565b7f4552433732313a207472616e7366657220746f20746865207a65726f2061646460008201527f7265737300000000000000000000000000000000000000000000000000000000602082015250565b6000613ab5602483612af2565b9150613ac082613a59565b604082019050919050565b60006020820190508181036000830152613ae481613aa8565b9050919050565b7f4e487b7100000000000000000000000000000000000000000000000000000000600052601160045260246000fd5b6000613b25826128fc565b9150613b30836128fc565b925082821015613b4357613b42613aeb565b5b828203905092915050565b6000613b59826128fc565b9150613b64836128fc565b9250827fffffffffffffffffffffffffffffffffffffffffffffffffffffffffffffffff03821115613b9957613b98613aeb565b5b828201905092915050565b7f4f776e61626c653a2063616c6c6572206973206e6f7420746865206f776e6572600082015250565b6000613bda602083612af2565b9150613be582613ba4565b602082019050919050565b60006020820190508181036000830152613c0981613bcd565b9050919050565b7f4552433732313a20617070726f766520746f2063616c6c657200000000000000600082015250565b6000613c46601983612af2565b9150613c5182613c10565b602082019050919050565b60006020820190508181036000830152613c7581613c39565b9050919050565b7f4552433732313a207472616e7366657220746f206e6f6e20455243373231526560008201527f63656976657220696d706c656d656e7465720000000000000000000000000000602082015250565b6000613cd8603283612af2565b9150613ce382613c7c565b604082019050919050565b60006020820190508181036000830152613d0781613ccb565b9050919050565b600081905092915050565b6000613d2482612ae7565b613d2e8185613d0e565b9350613d3e818560208601612b03565b80840191505092915050565b6000613d568285613d19565b9150613d628284613d19565b91508190509392505050565b7f43616e6e6f74207472616e7366657220736f756c626f756e6420746f6b656e73600082015250565b6000613da4602083612af2565b9150613daf82613d6e565b602082019050919050565b60006020820190508181036000830152613dd381613d97565b9050919050565b600081519050919050565b600082825260208201905092915050565b6000613e0182613dda565b613e0b8185613de5565b9350613e1b818560208601612b03565b613e248161293c565b840191505092915050565b6000608082019050613e446000830187612bf0565b613e516020830186612bf0565b613e5e6040830185612df9565b8181036060830152613e708184613df6565b905095945050505050565b600081519050613e8a8161286d565b92915050565b600060208284031215613ea657613ea5612837565b5b6000613eb484828501613e7b565b91505092915050565b7f4552433732313a206d696e7420746f20746865207a65726f2061646472657373600082015250565b6000613ef3602083612af2565b9150613efe82613ebd565b602082019050919050565b60006020820190508181036000830152613f2281613ee6565b9050919050565b7f4552433732313a20746f6b656e20616c7265616479206d696e74656400000000600082015250565b6000613f5f601c83612af2565b9150613f6a82613f29565b602082019050919050565b60006020820190508181036000830152613f8e81613f52565b9050919050565b6000613fa0826128fc565b91507fffffffffffffffffffffffffffffffffffffffffffffffffffffffffffffffff821415613fd357613fd2613aeb565b5b600182019050919050565b7f4e487b7100000000000000000000000000000000000000000000000000000000600052601260045260246000fd5b6000614018826128fc565b9150614023836128fc565b92508261403357614032613fde565b5b828204905092915050565b6000614049826128fc565b9150614054836128fc565b92508261406457614063613fde565b5b828206905092915050565b7f4e487b7100000000000000000000000000000000000000000000000000000000600052603260045260246000fdfea2646970667358221220faad7dfa3f80a65f0cbfaa059eefdc9c5b4d1ea50e85bf339c1392635bae822064736f6c63430008090033",
  "linkReferences": {},
  "deployedLinkReferences": {}
}